{"abi":[{"type":"constructor","inputs":[],"stateMutability":"nonpayable"},{"type":"function","name":"DEFAULT_ADMIN_ROLE","inputs":[],"outputs":[{"name":"","type":"bytes32","internalType":"bytes32"}],"stateMutability":"view"},{"type":"function","name":"OWNERS_ROLE","inputs":[],"outputs":[{"name":"","type":"bytes32","internalType":"bytes32"}],"stateMutability":"view"},{"type":"function","name":"getRoleAdmin","inputs":[{"name":"role","type":"bytes32","internalType":"bytes32"}],"outputs":[{"name":"","type":"bytes32","internalType":"bytes32"}],"stateMutability":"view"},{"type":"function","name":"grantRole","inputs":[{"name":"role","type":"bytes32","internalType":"bytes32"},{"name":"account","type":"address","internalType":"address"}],"outputs":[],"stateMutability":"nonpayable"},{"type":"function","name":"hasRole","inputs":[{"name":"role","type":"bytes32","internalType":"bytes32"},{"name":"account","type":"address","internalType":"address"}],"outputs":[{"name":"","type":"bool","internalType":"bool"}],"stateMutability":"view"},{"type":"function","name":"merkleRoot","inputs":[],"outputs":[{"name":"","type":"bytes32","internalType":"bytes32"}],"stateMutability":"view"},{"type":"function","name":"renounceRole","inputs":[{"name":"role","type":"bytes32","internalType":"bytes32"},{"name":"callerConfirmation","type":"address","internalType":"address"}],"outputs":[],"stateMutability":"nonpayable"},{"type":"function","name":"revokeRole","inputs":[{"name":"role","type":"bytes32","internalType":"bytes32"},{"name":"account","type":"address","internalType":"address"}],"outputs":[],"stateMutability":"nonpayable"},{"type":"function","name":"setMerkleRoot","inputs":[{"name":"root","type":"bytes32","internalType":"bytes32"}],"outputs":[],"stateMutability":"nonpayable"},{"type":"function","name":"supportsInterface","inputs":[{"name":"interfaceId","type":"bytes4","internalType":"bytes4"}],"outputs":[{"name":"","type":"bool","internalType":"bool"}],"stateMutability":"view"},{"type":"function","name":"usedHashes","inputs":[{"name":"","type":"bytes32","internalType":"bytes32"}],"outputs":[{"name":"","type":"bool","internalType":"bool"}],"stateMutability":"view"},{"type":"function","name":"verifySignature","inputs":[{"name":"signer","type":"address","internalType":"address"},{"name":"messageHash","type":"bytes32","internalType":"bytes32"},{"name":"signature","type":"bytes","internalType":"bytes"}],"outputs":[{"name":"","type":"bool","internalType":"bool"}],"stateMutability":"pure"},{"type":"event","name":"MerkleRootSet","inputs":[{"name":"newRoot","type":"bytes32","indexed":true,"internalType":"bytes32"}],"anonymous":false},{"type":"event","name":"RoleAdminChanged","inputs":[{"name":"role","type":"bytes32","indexed":true,"internalType":"bytes32"},{"name":"previousAdminRole","type":"bytes32","indexed":true,"internalType":"bytes32"},{"name":"newAdminRole","type":"bytes32","indexed":true,"internalType":"bytes32"}],"anonymous":false},{"type":"event","name":"RoleGranted","inputs":[{"name":"role","type":"bytes32","indexed":true,"internalType":"bytes32"},{"name":"account","type":"address","indexed":true,"internalType":"address"},{"name":"sender","type":"address","indexed":true,"internalType":"address"}],"anonymous":false},{"type":"event","name":"RoleRevoked","inputs":[{"name":"role","type":"bytes32","indexed":true,"internalType":"bytes32"},{"name":"account","type":"address","indexed":true,"internalType":"address"},{"name":"sender","type":"address","indexed":true,"internalType":"address"}],"anonymous":false},{"type":"error","name":"AccessControlBadConfirmation","inputs":[]},{"type":"error","name":"AccessControlUnauthorizedAccount","inputs":[{"name":"account","type":"address","internalType":"address"},{"name":"neededRole","type":"bytes32","internalType":"bytes32"}]},{"type":"error","name":"ECDSAInvalidSignature","inputs":[]},{"type":"error","name":"ECDSAInvalidSignatureLength","inputs":[{"name":"length","type":"uint256","internalType":"uint256"}]},{"type":"error","name":"ECDSAInvalidSignatureS","inputs":[{"name":"s","type":"bytes32","internalType":"bytes32"}]}],"bytecode":{"object":"0x608060405234801561000f575f5ffd5b506100225f5f1b3361005960201b60201c565b506100537fed3a1c2bf38898bc312bdff1d3496b50d5283c9d8b9df7e93924c7cc892cc9a53361005960201b60201c565b506101b8565b5f61006a838361014e60201b60201c565b6101445760015f5f8581526020019081526020015f205f015f8473ffffffffffffffffffffffffffffffffffffffff1673ffffffffffffffffffffffffffffffffffffffff1681526020019081526020015f205f6101000a81548160ff0219169083151502179055506100e16101b160201b60201c565b73ffffffffffffffffffffffffffffffffffffffff168273ffffffffffffffffffffffffffffffffffffffff16847f2f8788117e7eff1d82e926ec794901d17c78024a50270940304540a733656f0d60405160405180910390a460019050610148565b5f90505b92915050565b5f5f5f8481526020019081526020015f205f015f8373ffffffffffffffffffffffffffffffffffffffff1673ffffffffffffffffffffffffffffffffffffffff1681526020019081526020015f205f9054906101000a900460ff16905092915050565b5f33905090565b610f39806101c55f395ff3fe608060405234801561000f575f5ffd5b50600436106100b2575f3560e01c80637cb647591161006f5780637cb647591461019c57806391d14854146101b8578063a217fddf146101e8578063aef18bf714610206578063be11973b14610236578063d547741f14610254576100b2565b806301751998146100b657806301ffc9a7146100e6578063248a9ca3146101165780632eb4a7ab146101465780632f2ff15d1461016457806336568abe14610180575b5f5ffd5b6100d060048036038101906100cb9190610c61565b610270565b6040516100dd9190610ce7565b60405180910390f35b61010060048036038101906100fb9190610d55565b6102b2565b60405161010d9190610ce7565b60405180910390f35b610130600480360381019061012b9190610d80565b61032b565b60405161013d9190610dba565b60405180910390f35b61014e610347565b60405161015b9190610dba565b60405180910390f35b61017e60048036038101906101799190610dd3565b61034d565b005b61019a60048036038101906101959190610dd3565b61036f565b005b6101b660048036038101906101b19190610d80565b6103ea565b005b6101d260048036038101906101cd9190610dd3565b61044c565b6040516101df9190610ce7565b60405180910390f35b6101f06104af565b6040516101fd9190610dba565b60405180910390f35b610220600480360381019061021b9190610d80565b6104b5565b60405161022d9190610ce7565b60405180910390f35b61023e6104d2565b60405161024b9190610dba565b60405180910390f35b61026e60048036038101906102699190610dd3565b6104f6565b005b5f8373ffffffffffffffffffffffffffffffffffffffff166102928484610518565b73ffffffffffffffffffffffffffffffffffffffff161490509392505050565b5f7f7965db0b000000000000000000000000000000000000000000000000000000007bffffffffffffffffffffffffffffffffffffffffffffffffffffffff1916827bffffffffffffffffffffffffffffffffffffffffffffffffffffffff19161480610324575061032382610542565b5b9050919050565b5f5f5f8381526020019081526020015f20600101549050919050565b60015481565b6103568261032b565b61035f816105ab565b61036983836105bf565b50505050565b6103776106a8565b73ffffffffffffffffffffffffffffffffffffffff168173ffffffffffffffffffffffffffffffffffffffff16146103db576040517f6697b23200000000000000000000000000000000000000000000000000000000815260040160405180910390fd5b6103e582826106af565b505050565b7fed3a1c2bf38898bc312bdff1d3496b50d5283c9d8b9df7e93924c7cc892cc9a5610414816105ab565b81600181905550817f42cbc405e4dbf1b691e85b9a34b08ecfcf7a9ad9078bf4d645ccfa1fac11c10b60405160405180910390a25050565b5f5f5f8481526020019081526020015f205f015f8373ffffffffffffffffffffffffffffffffffffffff1673ffffffffffffffffffffffffffffffffffffffff1681526020019081526020015f205f9054906101000a900460ff16905092915050565b5f5f1b81565b6002602052805f5260405f205f915054906101000a900460ff1681565b7fed3a1c2bf38898bc312bdff1d3496b50d5283c9d8b9df7e93924c7cc892cc9a581565b6104ff8261032b565b610508816105ab565b61051283836106af565b50505050565b5f5f5f5f6105268686610798565b92509250925061053682826107ed565b82935050505092915050565b5f7f01ffc9a7000000000000000000000000000000000000000000000000000000007bffffffffffffffffffffffffffffffffffffffffffffffffffffffff1916827bffffffffffffffffffffffffffffffffffffffffffffffffffffffff1916149050919050565b6105bc816105b76106a8565b61094f565b50565b5f6105ca838361044c565b61069e5760015f5f8581526020019081526020015f205f015f8473ffffffffffffffffffffffffffffffffffffffff1673ffffffffffffffffffffffffffffffffffffffff1681526020019081526020015f205f6101000a81548160ff02191690831515021790555061063b6106a8565b73ffffffffffffffffffffffffffffffffffffffff168273ffffffffffffffffffffffffffffffffffffffff16847f2f8788117e7eff1d82e926ec794901d17c78024a50270940304540a733656f0d60405160405180910390a4600190506106a2565b5f90505b92915050565b5f33905090565b5f6106ba838361044c565b1561078e575f5f5f8581526020019081526020015f205f015f8473ffffffffffffffffffffffffffffffffffffffff1673ffffffffffffffffffffffffffffffffffffffff1681526020019081526020015f205f6101000a81548160ff02191690831515021790555061072b6106a8565b73ffffffffffffffffffffffffffffffffffffffff168273ffffffffffffffffffffffffffffffffffffffff16847ff6391f5c32d9c69d2a47ea670b442974b53935d1edc7fd64eb21e047a839171b60405160405180910390a460019050610792565b5f90505b92915050565b5f5f5f60418451036107d8575f5f5f602087015192506040870151915060608701515f1a90506107ca888285856109a0565b9550955095505050506107e6565b5f600285515f1b9250925092505b9250925092565b5f6003811115610800576107ff610e11565b5b82600381111561081357610812610e11565b5b031561094b576001600381111561082d5761082c610e11565b5b8260038111156108405761083f610e11565b5b03610877576040517ff645eedf00000000000000000000000000000000000000000000000000000000815260040160405180910390fd5b6002600381111561088b5761088a610e11565b5b82600381111561089e5761089d610e11565b5b036108e257805f1c6040517ffce698f70000000000000000000000000000000000000000000000000000000081526004016108d99190610e56565b60405180910390fd5b6003808111156108f5576108f4610e11565b5b82600381111561090857610907610e11565b5b0361094a57806040517fd78bce0c0000000000000000000000000000000000000000000000000000000081526004016109419190610dba565b60405180910390fd5b5b5050565b610959828261044c565b61099c5780826040517fe2517d3f000000000000000000000000000000000000000000000000000000008152600401610993929190610e7e565b60405180910390fd5b5050565b5f5f5f7f7fffffffffffffffffffffffffffffff5d576e7357a4501ddfe92f46681b20a0845f1c11156109dc575f600385925092509250610a7d565b5f6001888888886040515f81526020016040526040516109ff9493929190610ec0565b6020604051602081039080840390855afa158015610a1f573d5f5f3e3d5ffd5b5050506020604051035190505f73ffffffffffffffffffffffffffffffffffffffff168173ffffffffffffffffffffffffffffffffffffffff1603610a70575f60015f5f1b93509350935050610a7d565b805f5f5f1b935093509350505b9450945094915050565b5f604051905090565b5f5ffd5b5f5ffd5b5f73ffffffffffffffffffffffffffffffffffffffff82169050919050565b5f610ac182610a98565b9050919050565b610ad181610ab7565b8114610adb575f5ffd5b50565b5f81359050610aec81610ac8565b92915050565b5f819050919050565b610b0481610af2565b8114610b0e575f5ffd5b50565b5f81359050610b1f81610afb565b92915050565b5f5ffd5b5f5ffd5b5f601f19601f8301169050919050565b7f4e487b71000000000000000000000000000000000000000000000000000000005f52604160045260245ffd5b610b7382610b2d565b810181811067ffffffffffffffff82111715610b9257610b91610b3d565b5b80604052505050565b5f610ba4610a87565b9050610bb08282610b6a565b919050565b5f67ffffffffffffffff821115610bcf57610bce610b3d565b5b610bd882610b2d565b9050602081019050919050565b828183375f83830152505050565b5f610c05610c0084610bb5565b610b9b565b905082815260208101848484011115610c2157610c20610b29565b5b610c2c848285610be5565b509392505050565b5f82601f830112610c4857610c47610b25565b5b8135610c58848260208601610bf3565b91505092915050565b5f5f5f60608486031215610c7857610c77610a90565b5b5f610c8586828701610ade565b9350506020610c9686828701610b11565b925050604084013567ffffffffffffffff811115610cb757610cb6610a94565b5b610cc386828701610c34565b9150509250925092565b5f8115159050919050565b610ce181610ccd565b82525050565b5f602082019050610cfa5f830184610cd8565b92915050565b5f7fffffffff0000000000000000000000000000000000000000000000000000000082169050919050565b610d3481610d00565b8114610d3e575f5ffd5b50565b5f81359050610d4f81610d2b565b92915050565b5f60208284031215610d6a57610d69610a90565b5b5f610d7784828501610d41565b91505092915050565b5f60208284031215610d9557610d94610a90565b5b5f610da284828501610b11565b91505092915050565b610db481610af2565b82525050565b5f602082019050610dcd5f830184610dab565b92915050565b5f5f60408385031215610de957610de8610a90565b5b5f610df685828601610b11565b9250506020610e0785828601610ade565b9150509250929050565b7f4e487b71000000000000000000000000000000000000000000000000000000005f52602160045260245ffd5b5f819050919050565b610e5081610e3e565b82525050565b5f602082019050610e695f830184610e47565b92915050565b610e7881610ab7565b82525050565b5f604082019050610e915f830185610e6f565b610e9e6020830184610dab565b9392505050565b5f60ff82169050919050565b610eba81610ea5565b82525050565b5f608082019050610ed35f830187610dab565b610ee06020830186610eb1565b610eed6040830185610dab565b610efa6060830184610dab565b9594505050505056fea2646970667358221220bb2218b60dedf23148350289dc96edc40fed0b689563841a40a07695780e431464736f6c63430008210033","linkReferences":{}},"methodIdentifiers":{"DEFAULT_ADMIN_ROLE()":"a217fddf","OWNERS_ROLE()":"be11973b","getRoleAdmin(bytes32)":"248a9ca3","grantRole(bytes32,address)":"2f2ff15d","hasRole(bytes32,address)":"91d14854","merkleRoot()":"2eb4a7ab","renounceRole(bytes32,address)":"36568abe","revokeRole(bytes32,address)":"d547741f","setMerkleRoot(bytes32)":"7cb64759","supportsInterface(bytes4)":"01ffc9a7","usedHashes(bytes32)":"aef18bf7","verifySignature(address,bytes32,bytes)":"01751998"},"id":8}