{"abi":[{"type":"constructor","inputs":[{"name":"_owners","type":"address[]","internalType":"address[]"},{"name":"_threshold","type":"uint256","internalType":"uint256"}],"stateMutability":"payable"},{"type":"receive","stateMutability":"payable"},{"type":"function","name":"TIMELOCK_DURATION","inputs":[],"outputs":[{"name":"","type":"uint256","internalType":"uint256"}],"stateMutability":"view"},{"type":"function","name":"balances","inputs":[{"name":"","type":"address","internalType":"address"}],"outputs":[{"name":"","type":"uint256","internalType":"uint256"}],"stateMutability":"view"},{"type":"function","name":"claim","inputs":[{"name":"proof","type":"bytes32[]","internalType":"bytes32[]"},{"name":"amount","type":"uint256","internalType":"uint256"}],"outputs":[],"stateMutability":"nonpayable"},{"type":"function","name":"claimed","inputs":[{"name":"","type":"address","internalType":"address"}],"outputs":[{"name":"","type":"bool","internalType":"bool"}],"stateMutability":"view"},{"type":"function","name":"confirmed","inputs":[{"name":"","type":"uint256","internalType":"uint256"},{"name":"","type":"address","internalType":"address"}],"outputs":[{"name":"","type":"bool","internalType":"bool"}],"stateMutability":"view"},{"type":"function","name":"deposit","inputs":[],"outputs":[],"stateMutability":"payable"},{"type":"function","name":"emergencyWithdrawAll","inputs":[],"outputs":[],"stateMutability":"nonpayable"},{"type":"function","name":"isOwner","inputs":[{"name":"","type":"address","internalType":"address"}],"outputs":[{"name":"","type":"bool","internalType":"bool"}],"stateMutability":"view"},{"type":"function","name":"merkle","inputs":[],"outputs":[{"name":"","type":"address","internalType":"contract Merkle"}],"stateMutability":"view"},{"type":"function","name":"owners","inputs":[{"name":"","type":"uint256","internalType":"uint256"}],"outputs":[{"name":"","type":"address","internalType":"address"}],"stateMutability":"view"},{"type":"function","name":"threshold","inputs":[],"outputs":[{"name":"","type":"uint256","internalType":"uint256"}],"stateMutability":"view"},{"type":"function","name":"totalVaultValue","inputs":[],"outputs":[{"name":"","type":"uint256","internalType":"uint256"}],"stateMutability":"view"},{"type":"function","name":"transaction","inputs":[],"outputs":[{"name":"","type":"address","internalType":"contract Transactions"}],"stateMutability":"view"},{"type":"function","name":"withdraw","inputs":[{"name":"amount","type":"uint256","internalType":"uint256"}],"outputs":[],"stateMutability":"nonpayable"},{"type":"event","name":"Claim","inputs":[{"name":"claimant","type":"address","indexed":true,"internalType":"address"},{"name":"amount","type":"uint256","indexed":false,"internalType":"uint256"}],"anonymous":false},{"type":"event","name":"Deposit","inputs":[{"name":"depositor","type":"address","indexed":true,"internalType":"address"},{"name":"amount","type":"uint256","indexed":false,"internalType":"uint256"}],"anonymous":false},{"type":"event","name":"Withdrawal","inputs":[{"name":"withdrawer","type":"address","indexed":true,"internalType":"address"},{"name":"amount","type":"uint256","indexed":false,"internalType":"uint256"}],"anonymous":false},{"type":"error","name":"AlreadyClaimed","inputs":[]},{"type":"error","name":"InsufficientBalance","inputs":[]},{"type":"error","name":"InvalidLeaf","inputs":[]},{"type":"error","name":"NoOwners","inputs":[]},{"type":"error","name":"NotAnOwner","inputs":[]},{"type":"error","name":"Paused","inputs":[]},{"type":"error","name":"TransactFailed","inputs":[]},{"type":"error","name":"ZeroAddressInOwnersArray","inputs":[]}],"bytecode":{"object":"0x60806040526040516117ff3803806117ff833981810160405281019061002591906103b7565b5f82510361005f576040517f60d5ca6300000000000000000000000000000000000000000000000000000000815260040160405180910390fd5b806004819055505f5f90505b82518110156101ba575f83828151811061008857610087610411565b5b602002602001015190505f73ffffffffffffffffffffffffffffffffffffffff168173ffffffffffffffffffffffffffffffffffffffff16036100f7576040517fc4820bb500000000000000000000000000000000000000000000000000000000815260040160405180910390fd5b600160035f8373ffffffffffffffffffffffffffffffffffffffff1673ffffffffffffffffffffffffffffffffffffffff1681526020019081526020015f205f6101000a81548160ff021916908315150217905550600281908060018154018082558091505060019003905f5260205f20015f9091909190916101000a81548173ffffffffffffffffffffffffffffffffffffffff021916908373ffffffffffffffffffffffffffffffffffffffff16021790555050808060010191505061006b565b5034600881905550505061043e565b5f604051905090565b5f5ffd5b5f5ffd5b5f5ffd5b5f601f19601f8301169050919050565b7f4e487b71000000000000000000000000000000000000000000000000000000005f52604160045260245ffd5b610224826101de565b810181811067ffffffffffffffff82111715610243576102426101ee565b5b80604052505050565b5f6102556101c9565b9050610261828261021b565b919050565b5f67ffffffffffffffff8211156102805761027f6101ee565b5b602082029050602081019050919050565b5f5ffd5b5f73ffffffffffffffffffffffffffffffffffffffff82169050919050565b5f6102be82610295565b9050919050565b6102ce816102b4565b81146102d8575f5ffd5b50565b5f815190506102e9816102c5565b92915050565b5f6103016102fc84610266565b61024c565b9050808382526020820190506020840283018581111561032457610323610291565b5b835b8181101561034d578061033988826102db565b845260208401935050602081019050610326565b5050509392505050565b5f82601f83011261036b5761036a6101da565b5b815161037b8482602086016102ef565b91505092915050565b5f819050919050565b61039681610384565b81146103a0575f5ffd5b50565b5f815190506103b18161038d565b92915050565b5f5f604083850312156103cd576103cc6101d2565b5b5f83015167ffffffffffffffff8111156103ea576103e96101d6565b5b6103f685828601610357565b9250506020610407858286016103a3565b9150509250929050565b7f4e487b71000000000000000000000000000000000000000000000000000000005f52603260045260245ffd5b6113b48061044b5f395ff3fe6080604052600436106100e0575f3560e01c80638790c1de1161007e578063c884ef8311610058578063c884ef831461038c578063c99de57e146103c8578063d0e30db0146103f2578063dd191719146103fc576101a0565b80638790c1de146102fc578063afbc74b914610338578063c584b9b514610362576101a0565b80632f54bf6e116100ba5780632f54bf6e146102445780633b4393511461028057806342cde4e8146102a85780634623c81e146102d2576101a0565b8063025e7c27146101a457806327e235e3146101e05780632e1a7d4d1461021c576101a0565b366101a0573460065f3373ffffffffffffffffffffffffffffffffffffffff1673ffffffffffffffffffffffffffffffffffffffff1681526020019081526020015f205f8282546101319190610e48565b925050819055503460085f8282546101499190610e48565b925050819055503373ffffffffffffffffffffffffffffffffffffffff167fe1fffcc4923d04b559f4d29a8bfc6cda04eb5b0d3c460751c2402c5c5cc9109c346040516101969190610e8a565b60405180910390a2005b5f5ffd5b3480156101af575f5ffd5b506101ca60048036038101906101c59190610ed5565b610412565b6040516101d79190610f3f565b60405180910390f35b3480156101eb575f5ffd5b5061020660048036038101906102019190610f82565b61044d565b6040516102139190610e8a565b60405180910390f35b348015610227575f5ffd5b50610242600480360381019061023d9190610ed5565b610462565b005b34801561024f575f5ffd5b5061026a60048036038101906102659190610f82565b6106fa565b6040516102779190610fc7565b60405180910390f35b34801561028b575f5ffd5b506102a660048036038101906102a19190611041565b610717565b005b3480156102b3575f5ffd5b506102bc610afd565b6040516102c99190610e8a565b60405180910390f35b3480156102dd575f5ffd5b506102e6610b03565b6040516102f39190610e8a565b60405180910390f35b348015610307575f5ffd5b50610322600480360381019061031d919061109e565b610b09565b60405161032f9190610fc7565b60405180910390f35b348015610343575f5ffd5b5061034c610b33565b6040516103599190610e8a565b60405180910390f35b34801561036d575f5ffd5b50610376610b39565b6040516103839190611137565b60405180910390f35b348015610397575f5ffd5b506103b260048036038101906103ad9190610f82565b610b5d565b6040516103bf9190610fc7565b60405180910390f35b3480156103d3575f5ffd5b506103dc610b7a565b6040516103e99190611181565b60405180910390f35b6103fa610b9f565b005b348015610407575f5ffd5b50610410610c5a565b005b60028181548110610421575f80fd5b905f5260205f20015f915054906101000a900473ffffffffffffffffffffffffffffffffffffffff1681565b6006602052805f5260405f205f915090505481565b60015f9054906101000a900473ffffffffffffffffffffffffffffffffffffffff1673ffffffffffffffffffffffffffffffffffffffff16635c975abb6040518163ffffffff1660e01b8152600401602060405180830381865afa1580156104cc573d5f5f3e3d5ffd5b505050506040513d601f19601f820116820180604052508101906104f091906111c4565b15610527576040517f9e87fac800000000000000000000000000000000000000000000000000000000815260040160405180910390fd5b8060065f3373ffffffffffffffffffffffffffffffffffffffff1673ffffffffffffffffffffffffffffffffffffffff1681526020019081526020015f2054101561059e576040517ff4d678b800000000000000000000000000000000000000000000000000000000815260040160405180910390fd5b8060065f3373ffffffffffffffffffffffffffffffffffffffff1673ffffffffffffffffffffffffffffffffffffffff1681526020019081526020015f205f8282546105ea91906111ef565b925050819055508060085f82825461060291906111ef565b925050819055505f3373ffffffffffffffffffffffffffffffffffffffff168260405161062e9061124f565b5f6040518083038185875af1925050503d805f8114610668576040519150601f19603f3d011682016040523d82523d5f602084013e61066d565b606091505b50509050806106a8576040517f6e020c0500000000000000000000000000000000000000000000000000000000815260040160405180910390fd5b3373ffffffffffffffffffffffffffffffffffffffff167f7fcf532c15f0a6db0bd6d0e038bea71d30d808c7d98cb3bf7268a95bf5081b65836040516106ee9190610e8a565b60405180910390a25050565b6003602052805f5260405f205f915054906101000a900460ff1681565b60015f9054906101000a900473ffffffffffffffffffffffffffffffffffffffff1673ffffffffffffffffffffffffffffffffffffffff16635c975abb6040518163ffffffff1660e01b8152600401602060405180830381865afa158015610781573d5f5f3e3d5ffd5b505050506040513d601f19601f820116820180604052508101906107a591906111c4565b156107dc576040517f9e87fac800000000000000000000000000000000000000000000000000000000815260040160405180910390fd5b5f33826040516020016107f09291906112c8565b6040516020818303038152906040528051906020012090505f6108538585808060200260200160405190810160405280939291908181526020018383602002808284375f81840152601f19601f8201169050808301925050505050505083610d83565b90505f5f9054906101000a900473ffffffffffffffffffffffffffffffffffffffff1673ffffffffffffffffffffffffffffffffffffffff16632eb4a7ab6040518163ffffffff1660e01b8152600401602060405180830381865afa1580156108be573d5f5f3e3d5ffd5b505050506040513d601f19601f820116820180604052508101906108e29190611326565b811461091a576040517f35100de800000000000000000000000000000000000000000000000000000000815260040160405180910390fd5b60075f3373ffffffffffffffffffffffffffffffffffffffff1673ffffffffffffffffffffffffffffffffffffffff1681526020019081526020015f205f9054906101000a900460ff161561099b576040517f646cf55800000000000000000000000000000000000000000000000000000000815260040160405180910390fd5b600160075f3373ffffffffffffffffffffffffffffffffffffffff1673ffffffffffffffffffffffffffffffffffffffff1681526020019081526020015f205f6101000a81548160ff0219169083151502179055505f3373ffffffffffffffffffffffffffffffffffffffff1684604051610a159061124f565b5f6040518083038185875af1925050503d805f8114610a4f576040519150601f19603f3d011682016040523d82523d5f602084013e610a54565b606091505b5050905080610a8f576040517f6e020c0500000000000000000000000000000000000000000000000000000000815260040160405180910390fd5b8360085f828254610aa091906111ef565b925050819055503373ffffffffffffffffffffffffffffffffffffffff167f47cee97cb7acd717b3c0aa1435d004cd5b3c8c57d70dbceb4e4458bbd60e39d485604051610aed9190610e8a565b60405180910390a2505050505050565b60045481565b610e1081565b6005602052815f5260405f20602052805f5260405f205f915091509054906101000a900460ff1681565b60085481565b5f5f9054906101000a900473ffffffffffffffffffffffffffffffffffffffff1681565b6007602052805f5260405f205f915054906101000a900460ff1681565b60015f9054906101000a900473ffffffffffffffffffffffffffffffffffffffff1681565b3460065f3373ffffffffffffffffffffffffffffffffffffffff1673ffffffffffffffffffffffffffffffffffffffff1681526020019081526020015f205f828254610beb9190610e48565b925050819055503460085f828254610c039190610e48565b925050819055503373ffffffffffffffffffffffffffffffffffffffff167fe1fffcc4923d04b559f4d29a8bfc6cda04eb5b0d3c460751c2402c5c5cc9109c34604051610c509190610e8a565b60405180910390a2565b60035f3373ffffffffffffffffffffffffffffffffffffffff1673ffffffffffffffffffffffffffffffffffffffff1681526020019081526020015f205f9054906101000a900460ff16610cda576040517feea91ff800000000000000000000000000000000000000000000000000000000815260040160405180910390fd5b5f3373ffffffffffffffffffffffffffffffffffffffff1647604051610cff9061124f565b5f6040518083038185875af1925050503d805f8114610d39576040519150601f19603f3d011682016040523d82523d5f602084013e610d3e565b606091505b5050905080610d79576040517f6e020c0500000000000000000000000000000000000000000000000000000000815260040160405180910390fd5b5f60088190555050565b5f5f8290505f5f90505b8451811015610dc957610dba82868381518110610dad57610dac611351565b5b6020026020010151610dd4565b91508080600101915050610d8d565b508091505092915050565b5f818310610deb57610de68284610dfe565b610df6565b610df58383610dfe565b5b905092915050565b5f825f528160205260405f20905092915050565b5f819050919050565b7f4e487b71000000000000000000000000000000000000000000000000000000005f52601160045260245ffd5b5f610e5282610e12565b9150610e5d83610e12565b9250828201905080821115610e7557610e74610e1b565b5b92915050565b610e8481610e12565b82525050565b5f602082019050610e9d5f830184610e7b565b92915050565b5f5ffd5b5f5ffd5b610eb481610e12565b8114610ebe575f5ffd5b50565b5f81359050610ecf81610eab565b92915050565b5f60208284031215610eea57610ee9610ea3565b5b5f610ef784828501610ec1565b91505092915050565b5f73ffffffffffffffffffffffffffffffffffffffff82169050919050565b5f610f2982610f00565b9050919050565b610f3981610f1f565b82525050565b5f602082019050610f525f830184610f30565b92915050565b610f6181610f1f565b8114610f6b575f5ffd5b50565b5f81359050610f7c81610f58565b92915050565b5f60208284031215610f9757610f96610ea3565b5b5f610fa484828501610f6e565b91505092915050565b5f8115159050919050565b610fc181610fad565b82525050565b5f602082019050610fda5f830184610fb8565b92915050565b5f5ffd5b5f5ffd5b5f5ffd5b5f5f83601f84011261100157611000610fe0565b5b8235905067ffffffffffffffff81111561101e5761101d610fe4565b5b60208301915083602082028301111561103a57611039610fe8565b5b9250929050565b5f5f5f6040848603121561105857611057610ea3565b5b5f84013567ffffffffffffffff81111561107557611074610ea7565b5b61108186828701610fec565b9350935050602061109486828701610ec1565b9150509250925092565b5f5f604083850312156110b4576110b3610ea3565b5b5f6110c185828601610ec1565b92505060206110d285828601610f6e565b9150509250929050565b5f819050919050565b5f6110ff6110fa6110f584610f00565b6110dc565b610f00565b9050919050565b5f611110826110e5565b9050919050565b5f61112182611106565b9050919050565b61113181611117565b82525050565b5f60208201905061114a5f830184611128565b92915050565b5f61115a826110e5565b9050919050565b5f61116b82611150565b9050919050565b61117b81611161565b82525050565b5f6020820190506111945f830184611172565b92915050565b6111a381610fad565b81146111ad575f5ffd5b50565b5f815190506111be8161119a565b92915050565b5f602082840312156111d9576111d8610ea3565b5b5f6111e6848285016111b0565b91505092915050565b5f6111f982610e12565b915061120483610e12565b925082820390508181111561121c5761121b610e1b565b5b92915050565b5f81905092915050565b50565b5f61123a5f83611222565b91506112458261122c565b5f82019050919050565b5f6112598261122f565b9150819050919050565b5f8160601b9050919050565b5f61127982611263565b9050919050565b5f61128a8261126f565b9050919050565b6112a261129d82610f1f565b611280565b82525050565b5f819050919050565b6112c26112bd82610e12565b6112a8565b82525050565b5f6112d38285611291565b6014820191506112e382846112b1565b6020820191508190509392505050565b5f819050919050565b611305816112f3565b811461130f575f5ffd5b50565b5f81519050611320816112fc565b92915050565b5f6020828403121561133b5761133a610ea3565b5b5f61134884828501611312565b91505092915050565b7f4e487b71000000000000000000000000000000000000000000000000000000005f52603260045260245ffdfea264697066735822122003179b3d73ad4aee4f9862eece18adbc267227a38e932976ff7274bb5510246264736f6c63430008210033","linkReferences":{}},"methodIdentifiers":{"TIMELOCK_DURATION()":"4623c81e","balances(address)":"27e235e3","claim(bytes32[],uint256)":"3b439351","claimed(address)":"c884ef83","confirmed(uint256,address)":"8790c1de","deposit()":"d0e30db0","emergencyWithdrawAll()":"dd191719","isOwner(address)":"2f54bf6e","merkle()":"c584b9b5","owners(uint256)":"025e7c27","threshold()":"42cde4e8","totalVaultValue()":"afbc74b9","transaction()":"c99de57e","withdraw(uint256)":"2e1a7d4d"},"id":10}