{"abi":[{"type":"constructor","inputs":[{"name":"transactionAddr","type":"address","internalType":"address"},{"name":"merkleAddr","type":"address","internalType":"address"},{"name":"_owners","type":"address[]","internalType":"address[]"},{"name":"_threshold","type":"uint256","internalType":"uint256"}],"stateMutability":"payable"},{"type":"receive","stateMutability":"payable"},{"type":"function","name":"TIMELOCK_DURATION","inputs":[],"outputs":[{"name":"","type":"uint256","internalType":"uint256"}],"stateMutability":"view"},{"type":"function","name":"balances","inputs":[{"name":"","type":"address","internalType":"address"}],"outputs":[{"name":"","type":"uint256","internalType":"uint256"}],"stateMutability":"view"},{"type":"function","name":"claim","inputs":[{"name":"proof","type":"bytes32[]","internalType":"bytes32[]"},{"name":"amount","type":"uint256","internalType":"uint256"}],"outputs":[],"stateMutability":"nonpayable"},{"type":"function","name":"claimed","inputs":[{"name":"","type":"address","internalType":"address"}],"outputs":[{"name":"","type":"bool","internalType":"bool"}],"stateMutability":"view"},{"type":"function","name":"confirmed","inputs":[{"name":"","type":"uint256","internalType":"uint256"},{"name":"","type":"address","internalType":"address"}],"outputs":[{"name":"","type":"bool","internalType":"bool"}],"stateMutability":"view"},{"type":"function","name":"deposit","inputs":[],"outputs":[],"stateMutability":"payable"},{"type":"function","name":"emergencyWithdrawAll","inputs":[],"outputs":[],"stateMutability":"nonpayable"},{"type":"function","name":"isOwner","inputs":[{"name":"","type":"address","internalType":"address"}],"outputs":[{"name":"","type":"bool","internalType":"bool"}],"stateMutability":"view"},{"type":"function","name":"merkle","inputs":[],"outputs":[{"name":"","type":"address","internalType":"contract Merkle"}],"stateMutability":"view"},{"type":"function","name":"owners","inputs":[{"name":"","type":"uint256","internalType":"uint256"}],"outputs":[{"name":"","type":"address","internalType":"address"}],"stateMutability":"view"},{"type":"function","name":"setTransactionsAddr","inputs":[{"name":"_address","type":"address","internalType":"address"}],"outputs":[],"stateMutability":"nonpayable"},{"type":"function","name":"threshold","inputs":[],"outputs":[{"name":"","type":"uint256","internalType":"uint256"}],"stateMutability":"view"},{"type":"function","name":"totalVaultValue","inputs":[],"outputs":[{"name":"","type":"uint256","internalType":"uint256"}],"stateMutability":"view"},{"type":"function","name":"transaction","inputs":[],"outputs":[{"name":"","type":"address","internalType":"contract Transactions"}],"stateMutability":"view"},{"type":"function","name":"withdraw","inputs":[{"name":"amount","type":"uint256","internalType":"uint256"}],"outputs":[],"stateMutability":"nonpayable"},{"type":"event","name":"Claim","inputs":[{"name":"claimant","type":"address","indexed":true,"internalType":"address"},{"name":"amount","type":"uint256","indexed":false,"internalType":"uint256"}],"anonymous":false},{"type":"event","name":"Deposit","inputs":[{"name":"depositor","type":"address","indexed":true,"internalType":"address"},{"name":"amount","type":"uint256","indexed":false,"internalType":"uint256"}],"anonymous":false},{"type":"event","name":"Withdrawal","inputs":[{"name":"withdrawer","type":"address","indexed":true,"internalType":"address"},{"name":"amount","type":"uint256","indexed":false,"internalType":"uint256"}],"anonymous":false},{"type":"error","name":"AlreadyClaimed","inputs":[]},{"type":"error","name":"InsufficientBalance","inputs":[]},{"type":"error","name":"InvalidLeaf","inputs":[]},{"type":"error","name":"NoOwners","inputs":[]},{"type":"error","name":"NotAnOwner","inputs":[]},{"type":"error","name":"Paused","inputs":[]},{"type":"error","name":"TransactFailed","inputs":[]},{"type":"error","name":"ZeroAddressInOwnersArray","inputs":[]}],"bytecode":{"object":"0x608060405260405161191c38038061191c83398181016040528101906100259190610438565b8360015f6101000a81548173ffffffffffffffffffffffffffffffffffffffff021916908373ffffffffffffffffffffffffffffffffffffffff160217905550825f5f6101000a81548173ffffffffffffffffffffffffffffffffffffffff021916908373ffffffffffffffffffffffffffffffffffffffff1602179055505f8251036100de576040517f60d5ca6300000000000000000000000000000000000000000000000000000000815260040160405180910390fd5b806004819055505f5f90505b8251811015610239575f838281518110610107576101066104b8565b5b602002602001015190505f73ffffffffffffffffffffffffffffffffffffffff168173ffffffffffffffffffffffffffffffffffffffff1603610176576040517fc4820bb500000000000000000000000000000000000000000000000000000000815260040160405180910390fd5b600160035f8373ffffffffffffffffffffffffffffffffffffffff1673ffffffffffffffffffffffffffffffffffffffff1681526020019081526020015f205f6101000a81548160ff021916908315150217905550600281908060018154018082558091505060019003905f5260205f20015f9091909190916101000a81548173ffffffffffffffffffffffffffffffffffffffff021916908373ffffffffffffffffffffffffffffffffffffffff1602179055505080806001019150506100ea565b5034600881905550505050506104e5565b5f604051905090565b5f5ffd5b5f5ffd5b5f73ffffffffffffffffffffffffffffffffffffffff82169050919050565b5f6102848261025b565b9050919050565b6102948161027a565b811461029e575f5ffd5b50565b5f815190506102af8161028b565b92915050565b5f5ffd5b5f601f19601f8301169050919050565b7f4e487b71000000000000000000000000000000000000000000000000000000005f52604160045260245ffd5b6102ff826102b9565b810181811067ffffffffffffffff8211171561031e5761031d6102c9565b5b80604052505050565b5f61033061024a565b905061033c82826102f6565b919050565b5f67ffffffffffffffff82111561035b5761035a6102c9565b5b602082029050602081019050919050565b5f5ffd5b5f61038261037d84610341565b610327565b905080838252602082019050602084028301858111156103a5576103a461036c565b5b835b818110156103ce57806103ba88826102a1565b8452602084019350506020810190506103a7565b5050509392505050565b5f82601f8301126103ec576103eb6102b5565b5b81516103fc848260208601610370565b91505092915050565b5f819050919050565b61041781610405565b8114610421575f5ffd5b50565b5f815190506104328161040e565b92915050565b5f5f5f5f608085870312156104505761044f610253565b5b5f61045d878288016102a1565b945050602061046e878288016102a1565b935050604085015167ffffffffffffffff81111561048f5761048e610257565b5b61049b878288016103d8565b92505060606104ac87828801610424565b91505092959194509250565b7f4e487b71000000000000000000000000000000000000000000000000000000005f52603260045260245ffd5b61142a806104f25f395ff3fe6080604052600436106100eb575f3560e01c80638790c1de11610089578063c99de57e11610058578063c99de57e146103d3578063d0e30db0146103fd578063dd19171914610407578063f6548abb1461041d576101ab565b80638790c1de14610307578063afbc74b914610343578063c584b9b51461036d578063c884ef8314610397576101ab565b80632f54bf6e116100c55780632f54bf6e1461024f5780633b4393511461028b57806342cde4e8146102b35780634623c81e146102dd576101ab565b8063025e7c27146101af57806327e235e3146101eb5780632e1a7d4d14610227576101ab565b366101ab573460065f3373ffffffffffffffffffffffffffffffffffffffff1673ffffffffffffffffffffffffffffffffffffffff1681526020019081526020015f205f82825461013c9190610ebe565b925050819055503460085f8282546101549190610ebe565b925050819055503373ffffffffffffffffffffffffffffffffffffffff167fe1fffcc4923d04b559f4d29a8bfc6cda04eb5b0d3c460751c2402c5c5cc9109c346040516101a19190610f00565b60405180910390a2005b5f5ffd5b3480156101ba575f5ffd5b506101d560048036038101906101d09190610f4b565b610445565b6040516101e29190610fb5565b60405180910390f35b3480156101f6575f5ffd5b50610211600480360381019061020c9190610ff8565b610480565b60405161021e9190610f00565b60405180910390f35b348015610232575f5ffd5b5061024d60048036038101906102489190610f4b565b610495565b005b34801561025a575f5ffd5b5061027560048036038101906102709190610ff8565b61072d565b604051610282919061103d565b60405180910390f35b348015610296575f5ffd5b506102b160048036038101906102ac91906110b7565b61074a565b005b3480156102be575f5ffd5b506102c7610b30565b6040516102d49190610f00565b60405180910390f35b3480156102e8575f5ffd5b506102f1610b36565b6040516102fe9190610f00565b60405180910390f35b348015610312575f5ffd5b5061032d60048036038101906103289190611114565b610b3c565b60405161033a919061103d565b60405180910390f35b34801561034e575f5ffd5b50610357610b66565b6040516103649190610f00565b60405180910390f35b348015610378575f5ffd5b50610381610b6c565b60405161038e91906111ad565b60405180910390f35b3480156103a2575f5ffd5b506103bd60048036038101906103b89190610ff8565b610b90565b6040516103ca919061103d565b60405180910390f35b3480156103de575f5ffd5b506103e7610bad565b6040516103f491906111f7565b60405180910390f35b610405610bd2565b005b348015610412575f5ffd5b5061041b610c8d565b005b348015610428575f5ffd5b50610443600480360381019061043e9190610ff8565b610db6565b005b60028181548110610454575f80fd5b905f5260205f20015f915054906101000a900473ffffffffffffffffffffffffffffffffffffffff1681565b6006602052805f5260405f205f915090505481565b60015f9054906101000a900473ffffffffffffffffffffffffffffffffffffffff1673ffffffffffffffffffffffffffffffffffffffff16635c975abb6040518163ffffffff1660e01b8152600401602060405180830381865afa1580156104ff573d5f5f3e3d5ffd5b505050506040513d601f19601f82011682018060405250810190610523919061123a565b1561055a576040517f9e87fac800000000000000000000000000000000000000000000000000000000815260040160405180910390fd5b8060065f3373ffffffffffffffffffffffffffffffffffffffff1673ffffffffffffffffffffffffffffffffffffffff1681526020019081526020015f205410156105d1576040517ff4d678b800000000000000000000000000000000000000000000000000000000815260040160405180910390fd5b8060065f3373ffffffffffffffffffffffffffffffffffffffff1673ffffffffffffffffffffffffffffffffffffffff1681526020019081526020015f205f82825461061d9190611265565b925050819055508060085f8282546106359190611265565b925050819055505f3373ffffffffffffffffffffffffffffffffffffffff1682604051610661906112c5565b5f6040518083038185875af1925050503d805f811461069b576040519150601f19603f3d011682016040523d82523d5f602084013e6106a0565b606091505b50509050806106db576040517f6e020c0500000000000000000000000000000000000000000000000000000000815260040160405180910390fd5b3373ffffffffffffffffffffffffffffffffffffffff167f7fcf532c15f0a6db0bd6d0e038bea71d30d808c7d98cb3bf7268a95bf5081b65836040516107219190610f00565b60405180910390a25050565b6003602052805f5260405f205f915054906101000a900460ff1681565b60015f9054906101000a900473ffffffffffffffffffffffffffffffffffffffff1673ffffffffffffffffffffffffffffffffffffffff16635c975abb6040518163ffffffff1660e01b8152600401602060405180830381865afa1580156107b4573d5f5f3e3d5ffd5b505050506040513d601f19601f820116820180604052508101906107d8919061123a565b1561080f576040517f9e87fac800000000000000000000000000000000000000000000000000000000815260040160405180910390fd5b5f338260405160200161082392919061133e565b6040516020818303038152906040528051906020012090505f6108868585808060200260200160405190810160405280939291908181526020018383602002808284375f81840152601f19601f8201169050808301925050505050505083610df9565b90505f5f9054906101000a900473ffffffffffffffffffffffffffffffffffffffff1673ffffffffffffffffffffffffffffffffffffffff16632eb4a7ab6040518163ffffffff1660e01b8152600401602060405180830381865afa1580156108f1573d5f5f3e3d5ffd5b505050506040513d601f19601f82011682018060405250810190610915919061139c565b811461094d576040517f35100de800000000000000000000000000000000000000000000000000000000815260040160405180910390fd5b60075f3373ffffffffffffffffffffffffffffffffffffffff1673ffffffffffffffffffffffffffffffffffffffff1681526020019081526020015f205f9054906101000a900460ff16156109ce576040517f646cf55800000000000000000000000000000000000000000000000000000000815260040160405180910390fd5b600160075f3373ffffffffffffffffffffffffffffffffffffffff1673ffffffffffffffffffffffffffffffffffffffff1681526020019081526020015f205f6101000a81548160ff0219169083151502179055505f3373ffffffffffffffffffffffffffffffffffffffff1684604051610a48906112c5565b5f6040518083038185875af1925050503d805f8114610a82576040519150601f19603f3d011682016040523d82523d5f602084013e610a87565b606091505b5050905080610ac2576040517f6e020c0500000000000000000000000000000000000000000000000000000000815260040160405180910390fd5b8360085f828254610ad39190611265565b925050819055503373ffffffffffffffffffffffffffffffffffffffff167f47cee97cb7acd717b3c0aa1435d004cd5b3c8c57d70dbceb4e4458bbd60e39d485604051610b209190610f00565b60405180910390a2505050505050565b60045481565b610e1081565b6005602052815f5260405f20602052805f5260405f205f915091509054906101000a900460ff1681565b60085481565b5f5f9054906101000a900473ffffffffffffffffffffffffffffffffffffffff1681565b6007602052805f5260405f205f915054906101000a900460ff1681565b60015f9054906101000a900473ffffffffffffffffffffffffffffffffffffffff1681565b3460065f3373ffffffffffffffffffffffffffffffffffffffff1673ffffffffffffffffffffffffffffffffffffffff1681526020019081526020015f205f828254610c1e9190610ebe565b925050819055503460085f828254610c369190610ebe565b925050819055503373ffffffffffffffffffffffffffffffffffffffff167fe1fffcc4923d04b559f4d29a8bfc6cda04eb5b0d3c460751c2402c5c5cc9109c34604051610c839190610f00565b60405180910390a2565b60035f3373ffffffffffffffffffffffffffffffffffffffff1673ffffffffffffffffffffffffffffffffffffffff1681526020019081526020015f205f9054906101000a900460ff16610d0d576040517feea91ff800000000000000000000000000000000000000000000000000000000815260040160405180910390fd5b5f3373ffffffffffffffffffffffffffffffffffffffff1647604051610d32906112c5565b5f6040518083038185875af1925050503d805f8114610d6c576040519150601f19603f3d011682016040523d82523d5f602084013e610d71565b606091505b5050905080610dac576040517f6e020c0500000000000000000000000000000000000000000000000000000000815260040160405180910390fd5b5f60088190555050565b8060015f6101000a81548173ffffffffffffffffffffffffffffffffffffffff021916908373ffffffffffffffffffffffffffffffffffffffff16021790555050565b5f5f8290505f5f90505b8451811015610e3f57610e3082868381518110610e2357610e226113c7565b5b6020026020010151610e4a565b91508080600101915050610e03565b508091505092915050565b5f818310610e6157610e5c8284610e74565b610e6c565b610e6b8383610e74565b5b905092915050565b5f825f528160205260405f20905092915050565b5f819050919050565b7f4e487b71000000000000000000000000000000000000000000000000000000005f52601160045260245ffd5b5f610ec882610e88565b9150610ed383610e88565b9250828201905080821115610eeb57610eea610e91565b5b92915050565b610efa81610e88565b82525050565b5f602082019050610f135f830184610ef1565b92915050565b5f5ffd5b5f5ffd5b610f2a81610e88565b8114610f34575f5ffd5b50565b5f81359050610f4581610f21565b92915050565b5f60208284031215610f6057610f5f610f19565b5b5f610f6d84828501610f37565b91505092915050565b5f73ffffffffffffffffffffffffffffffffffffffff82169050919050565b5f610f9f82610f76565b9050919050565b610faf81610f95565b82525050565b5f602082019050610fc85f830184610fa6565b92915050565b610fd781610f95565b8114610fe1575f5ffd5b50565b5f81359050610ff281610fce565b92915050565b5f6020828403121561100d5761100c610f19565b5b5f61101a84828501610fe4565b91505092915050565b5f8115159050919050565b61103781611023565b82525050565b5f6020820190506110505f83018461102e565b92915050565b5f5ffd5b5f5ffd5b5f5ffd5b5f5f83601f84011261107757611076611056565b5b8235905067ffffffffffffffff8111156110945761109361105a565b5b6020830191508360208202830111156110b0576110af61105e565b5b9250929050565b5f5f5f604084860312156110ce576110cd610f19565b5b5f84013567ffffffffffffffff8111156110eb576110ea610f1d565b5b6110f786828701611062565b9350935050602061110a86828701610f37565b9150509250925092565b5f5f6040838503121561112a57611129610f19565b5b5f61113785828601610f37565b925050602061114885828601610fe4565b9150509250929050565b5f819050919050565b5f61117561117061116b84610f76565b611152565b610f76565b9050919050565b5f6111868261115b565b9050919050565b5f6111978261117c565b9050919050565b6111a78161118d565b82525050565b5f6020820190506111c05f83018461119e565b92915050565b5f6111d08261115b565b9050919050565b5f6111e1826111c6565b9050919050565b6111f1816111d7565b82525050565b5f60208201905061120a5f8301846111e8565b92915050565b61121981611023565b8114611223575f5ffd5b50565b5f8151905061123481611210565b92915050565b5f6020828403121561124f5761124e610f19565b5b5f61125c84828501611226565b91505092915050565b5f61126f82610e88565b915061127a83610e88565b925082820390508181111561129257611291610e91565b5b92915050565b5f81905092915050565b50565b5f6112b05f83611298565b91506112bb826112a2565b5f82019050919050565b5f6112cf826112a5565b9150819050919050565b5f8160601b9050919050565b5f6112ef826112d9565b9050919050565b5f611300826112e5565b9050919050565b61131861131382610f95565b6112f6565b82525050565b5f819050919050565b61133861133382610e88565b61131e565b82525050565b5f6113498285611307565b6014820191506113598284611327565b6020820191508190509392505050565b5f819050919050565b61137b81611369565b8114611385575f5ffd5b50565b5f8151905061139681611372565b92915050565b5f602082840312156113b1576113b0610f19565b5b5f6113be84828501611388565b91505092915050565b7f4e487b71000000000000000000000000000000000000000000000000000000005f52603260045260245ffdfea26469706673582212204b3371e13ab2c637cd045d818e94c043b185bd28132ab2a2acdd57b8014a40ff64736f6c63430008210033","linkReferences":{}},"methodIdentifiers":{"TIMELOCK_DURATION()":"4623c81e","balances(address)":"27e235e3","claim(bytes32[],uint256)":"3b439351","claimed(address)":"c884ef83","confirmed(uint256,address)":"8790c1de","deposit()":"d0e30db0","emergencyWithdrawAll()":"dd191719","isOwner(address)":"2f54bf6e","merkle()":"c584b9b5","owners(uint256)":"025e7c27","setTransactionsAddr(address)":"f6548abb","threshold()":"42cde4e8","totalVaultValue()":"afbc74b9","transaction()":"c99de57e","withdraw(uint256)":"2e1a7d4d"},"id":29}