{"abi":[{"type":"constructor","inputs":[{"name":"_owners","type":"address[]","internalType":"address[]"},{"name":"_threshold","type":"uint256","internalType":"uint256"}],"stateMutability":"nonpayable"},{"type":"receive","stateMutability":"payable"},{"type":"function","name":"TIMELOCK_DURATION","inputs":[],"outputs":[{"name":"","type":"uint256","internalType":"uint256"}],"stateMutability":"view"},{"type":"function","name":"balances","inputs":[{"name":"","type":"address","internalType":"address"}],"outputs":[{"name":"","type":"uint256","internalType":"uint256"}],"stateMutability":"view"},{"type":"function","name":"claim","inputs":[{"name":"proof","type":"bytes32[]","internalType":"bytes32[]"},{"name":"amount","type":"uint256","internalType":"uint256"}],"outputs":[],"stateMutability":"nonpayable"},{"type":"function","name":"claimed","inputs":[{"name":"","type":"address","internalType":"address"}],"outputs":[{"name":"","type":"bool","internalType":"bool"}],"stateMutability":"view"},{"type":"function","name":"confirmTransaction","inputs":[{"name":"txId","type":"uint256","internalType":"uint256"}],"outputs":[],"stateMutability":"nonpayable"},{"type":"function","name":"confirmed","inputs":[{"name":"","type":"uint256","internalType":"uint256"},{"name":"","type":"address","internalType":"address"}],"outputs":[{"name":"","type":"bool","internalType":"bool"}],"stateMutability":"view"},{"type":"function","name":"deposit","inputs":[],"outputs":[],"stateMutability":"payable"},{"type":"function","name":"emergencyWithdrawAll","inputs":[],"outputs":[],"stateMutability":"nonpayable"},{"type":"function","name":"executeTransaction","inputs":[{"name":"txId","type":"uint256","internalType":"uint256"}],"outputs":[],"stateMutability":"nonpayable"},{"type":"function","name":"isOwner","inputs":[{"name":"","type":"address","internalType":"address"}],"outputs":[{"name":"","type":"bool","internalType":"bool"}],"stateMutability":"view"},{"type":"function","name":"merkle","inputs":[],"outputs":[{"name":"","type":"address","internalType":"contract Merkle"}],"stateMutability":"view"},{"type":"function","name":"owners","inputs":[{"name":"","type":"uint256","internalType":"uint256"}],"outputs":[{"name":"","type":"address","internalType":"address"}],"stateMutability":"view"},{"type":"function","name":"pause","inputs":[],"outputs":[],"stateMutability":"nonpayable"},{"type":"function","name":"paused","inputs":[],"outputs":[{"name":"","type":"bool","internalType":"bool"}],"stateMutability":"view"},{"type":"function","name":"submitTransaction","inputs":[{"name":"to","type":"address","internalType":"address"},{"name":"value","type":"uint256","internalType":"uint256"},{"name":"data","type":"bytes","internalType":"bytes"}],"outputs":[],"stateMutability":"nonpayable"},{"type":"function","name":"threshold","inputs":[],"outputs":[{"name":"","type":"uint256","internalType":"uint256"}],"stateMutability":"view"},{"type":"function","name":"totalVaultValue","inputs":[],"outputs":[{"name":"","type":"uint256","internalType":"uint256"}],"stateMutability":"view"},{"type":"function","name":"transaction","inputs":[],"outputs":[{"name":"","type":"address","internalType":"contract Transactions"}],"stateMutability":"view"},{"type":"function","name":"transactions","inputs":[{"name":"","type":"uint256","internalType":"uint256"}],"outputs":[{"name":"to","type":"address","internalType":"address"},{"name":"value","type":"uint256","internalType":"uint256"},{"name":"data","type":"bytes","internalType":"bytes"},{"name":"executed","type":"bool","internalType":"bool"},{"name":"confirmations","type":"uint256","internalType":"uint256"},{"name":"submissionTime","type":"uint256","internalType":"uint256"},{"name":"executionTime","type":"uint256","internalType":"uint256"}],"stateMutability":"view"},{"type":"function","name":"txCount","inputs":[],"outputs":[{"name":"","type":"uint256","internalType":"uint256"}],"stateMutability":"view"},{"type":"function","name":"unpause","inputs":[],"outputs":[],"stateMutability":"nonpayable"},{"type":"function","name":"withdraw","inputs":[{"name":"amount","type":"uint256","internalType":"uint256"}],"outputs":[],"stateMutability":"nonpayable"},{"type":"event","name":"Claim","inputs":[{"name":"claimant","type":"address","indexed":true,"internalType":"address"},{"name":"amount","type":"uint256","indexed":false,"internalType":"uint256"}],"anonymous":false},{"type":"event","name":"Confirmation","inputs":[{"name":"txId","type":"uint256","indexed":true,"internalType":"uint256"},{"name":"owner","type":"address","indexed":true,"internalType":"address"}],"anonymous":false},{"type":"event","name":"Deposit","inputs":[{"name":"depositor","type":"address","indexed":true,"internalType":"address"},{"name":"amount","type":"uint256","indexed":false,"internalType":"uint256"}],"anonymous":false},{"type":"event","name":"Execution","inputs":[{"name":"txId","type":"uint256","indexed":true,"internalType":"uint256"}],"anonymous":false},{"type":"event","name":"Submission","inputs":[{"name":"txId","type":"uint256","indexed":true,"internalType":"uint256"}],"anonymous":false},{"type":"event","name":"Withdrawal","inputs":[{"name":"withdrawer","type":"address","indexed":true,"internalType":"address"},{"name":"amount","type":"uint256","indexed":false,"internalType":"uint256"}],"anonymous":false},{"type":"error","name":"AlreadyClaimed","inputs":[]},{"type":"error","name":"InsufficientBalance","inputs":[]},{"type":"error","name":"InvalidLeaf","inputs":[]},{"type":"error","name":"NeedMoreConfirmations","inputs":[]},{"type":"error","name":"NoOwners","inputs":[]},{"type":"error","name":"NotAnOwner","inputs":[]},{"type":"error","name":"NotOwner","inputs":[]},{"type":"error","name":"Paused","inputs":[]},{"type":"error","name":"TransactFailed","inputs":[]},{"type":"error","name":"TransactionConfirmedByCaller","inputs":[]},{"type":"error","name":"TransactionFailed","inputs":[]},{"type":"error","name":"TransactionIsExecuted","inputs":[]},{"type":"error","name":"VaultIsPaused","inputs":[]},{"type":"error","name":"WaitForExecutionTime","inputs":[]},{"type":"error","name":"ZeroAddressInOwnersArray","inputs":[]}],"bytecode":{"object":"0x608060405234801561000f575f5ffd5b506040516128af3803806128af833981810160405281019061003191906103c7565b81815f82510361006d576040517f60d5ca6300000000000000000000000000000000000000000000000000000000815260040160405180910390fd5b806004819055505f5f90505b82518110156101c8575f83828151811061009657610095610421565b5b602002602001015190505f73ffffffffffffffffffffffffffffffffffffffff168173ffffffffffffffffffffffffffffffffffffffff1603610105576040517fc4820bb500000000000000000000000000000000000000000000000000000000815260040160405180910390fd5b600160035f8373ffffffffffffffffffffffffffffffffffffffff1673ffffffffffffffffffffffffffffffffffffffff1681526020019081526020015f205f6101000a81548160ff021916908315150217905550600281908060018154018082558091505060019003905f5260205f20015f9091909190916101000a81548173ffffffffffffffffffffffffffffffffffffffff021916908373ffffffffffffffffffffffffffffffffffffffff160217905550508080600101915050610079565b50346008819055505050505061044e565b5f604051905090565b5f5ffd5b5f5ffd5b5f5ffd5b5f601f19601f8301169050919050565b7f4e487b71000000000000000000000000000000000000000000000000000000005f52604160045260245ffd5b610234826101ee565b810181811067ffffffffffffffff82111715610253576102526101fe565b5b80604052505050565b5f6102656101d9565b9050610271828261022b565b919050565b5f67ffffffffffffffff8211156102905761028f6101fe565b5b602082029050602081019050919050565b5f5ffd5b5f73ffffffffffffffffffffffffffffffffffffffff82169050919050565b5f6102ce826102a5565b9050919050565b6102de816102c4565b81146102e8575f5ffd5b50565b5f815190506102f9816102d5565b92915050565b5f61031161030c84610276565b61025c565b90508083825260208201905060208402830185811115610334576103336102a1565b5b835b8181101561035d578061034988826102eb565b845260208401935050602081019050610336565b5050509392505050565b5f82601f83011261037b5761037a6101ea565b5b815161038b8482602086016102ff565b91505092915050565b5f819050919050565b6103a681610394565b81146103b0575f5ffd5b50565b5f815190506103c18161039d565b92915050565b5f5f604083850312156103dd576103dc6101e2565b5b5f83015167ffffffffffffffff8111156103fa576103f96101e6565b5b61040685828601610367565b9250506020610417858286016103b3565b9150509250929050565b7f4e487b71000000000000000000000000000000000000000000000000000000005f52603260045260245ffd5b6124548061045b5f395ff3fe608060405260043610610138575f3560e01c80638790c1de116100aa578063c64274741161006e578063c6427474146104ce578063c884ef83146104f6578063c99de57e14610532578063d0e30db01461055c578063dd19171914610566578063ee22610b1461057c576101f8565b80638790c1de146103d45780639ace38c214610410578063afbc74b914610452578063c01a8c841461047c578063c584b9b5146104a4576101f8565b80633c540687116100fc5780633c540687146103005780633f4ba83a1461032a57806342cde4e8146103405780634623c81e1461036a5780635c975abb146103945780638456cb59146103be576101f8565b8063025e7c27146101fc57806327e235e3146102385780632e1a7d4d146102745780632f54bf6e1461029c5780633b439351146102d8576101f8565b366101f8573460065f3373ffffffffffffffffffffffffffffffffffffffff1673ffffffffffffffffffffffffffffffffffffffff1681526020019081526020015f205f8282546101899190611960565b925050819055503460085f8282546101a19190611960565b925050819055503373ffffffffffffffffffffffffffffffffffffffff167fe1fffcc4923d04b559f4d29a8bfc6cda04eb5b0d3c460751c2402c5c5cc9109c346040516101ee91906119a2565b60405180910390a2005b5f5ffd5b348015610207575f5ffd5b50610222600480360381019061021d91906119ed565b6105a4565b60405161022f9190611a57565b60405180910390f35b348015610243575f5ffd5b5061025e60048036038101906102599190611a9a565b6105df565b60405161026b91906119a2565b60405180910390f35b34801561027f575f5ffd5b5061029a600480360381019061029591906119ed565b6105f4565b005b3480156102a7575f5ffd5b506102c260048036038101906102bd9190611a9a565b61088c565b6040516102cf9190611adf565b60405180910390f35b3480156102e3575f5ffd5b506102fe60048036038101906102f99190611b59565b6108a9565b005b34801561030b575f5ffd5b50610314610c8f565b60405161032191906119a2565b60405180910390f35b348015610335575f5ffd5b5061033e610c95565b005b34801561034b575f5ffd5b50610354610d30565b60405161036191906119a2565b60405180910390f35b348015610375575f5ffd5b5061037e610d36565b60405161038b91906119a2565b60405180910390f35b34801561039f575f5ffd5b506103a8610d3c565b6040516103b59190611adf565b60405180910390f35b3480156103c9575f5ffd5b506103d2610d4e565b005b3480156103df575f5ffd5b506103fa60048036038101906103f59190611bb6565b610dea565b6040516104079190611adf565b60405180910390f35b34801561041b575f5ffd5b50610436600480360381019061043191906119ed565b610e14565b6040516104499796959493929190611c64565b60405180910390f35b34801561045d575f5ffd5b50610466610f03565b60405161047391906119a2565b60405180910390f35b348015610487575f5ffd5b506104a2600480360381019061049d91906119ed565b610f09565b005b3480156104af575f5ffd5b506104b86111a4565b6040516104c59190611d33565b60405180910390f35b3480156104d9575f5ffd5b506104f460048036038101906104ef9190611da1565b6111c8565b005b348015610501575f5ffd5b5061051c60048036038101906105179190611a9a565b611483565b6040516105299190611adf565b60405180910390f35b34801561053d575f5ffd5b506105466114a0565b6040516105539190611e43565b60405180910390f35b6105646114c5565b005b348015610571575f5ffd5b5061057a611580565b005b348015610587575f5ffd5b506105a2600480360381019061059d91906119ed565b6116a9565b005b600281815481106105b3575f80fd5b905f5260205f20015f915054906101000a900473ffffffffffffffffffffffffffffffffffffffff1681565b6006602052805f5260405f205f915090505481565b60015f9054906101000a900473ffffffffffffffffffffffffffffffffffffffff1673ffffffffffffffffffffffffffffffffffffffff16635c975abb6040518163ffffffff1660e01b8152600401602060405180830381865afa15801561065e573d5f5f3e3d5ffd5b505050506040513d601f19601f820116820180604052508101906106829190611e86565b156106b9576040517f9e87fac800000000000000000000000000000000000000000000000000000000815260040160405180910390fd5b8060065f3373ffffffffffffffffffffffffffffffffffffffff1673ffffffffffffffffffffffffffffffffffffffff1681526020019081526020015f20541015610730576040517ff4d678b800000000000000000000000000000000000000000000000000000000815260040160405180910390fd5b8060065f3373ffffffffffffffffffffffffffffffffffffffff1673ffffffffffffffffffffffffffffffffffffffff1681526020019081526020015f205f82825461077c9190611eb1565b925050819055508060085f8282546107949190611eb1565b925050819055505f3373ffffffffffffffffffffffffffffffffffffffff16826040516107c090611f11565b5f6040518083038185875af1925050503d805f81146107fa576040519150601f19603f3d011682016040523d82523d5f602084013e6107ff565b606091505b505090508061083a576040517f6e020c0500000000000000000000000000000000000000000000000000000000815260040160405180910390fd5b3373ffffffffffffffffffffffffffffffffffffffff167f7fcf532c15f0a6db0bd6d0e038bea71d30d808c7d98cb3bf7268a95bf5081b658360405161088091906119a2565b60405180910390a25050565b6003602052805f5260405f205f915054906101000a900460ff1681565b60015f9054906101000a900473ffffffffffffffffffffffffffffffffffffffff1673ffffffffffffffffffffffffffffffffffffffff16635c975abb6040518163ffffffff1660e01b8152600401602060405180830381865afa158015610913573d5f5f3e3d5ffd5b505050506040513d601f19601f820116820180604052508101906109379190611e86565b1561096e576040517f9e87fac800000000000000000000000000000000000000000000000000000000815260040160405180910390fd5b5f3382604051602001610982929190611f8a565b6040516020818303038152906040528051906020012090505f6109e58585808060200260200160405190810160405280939291908181526020018383602002808284375f81840152601f19601f820116905080830192505050505050508361189b565b90505f5f9054906101000a900473ffffffffffffffffffffffffffffffffffffffff1673ffffffffffffffffffffffffffffffffffffffff16632eb4a7ab6040518163ffffffff1660e01b8152600401602060405180830381865afa158015610a50573d5f5f3e3d5ffd5b505050506040513d601f19601f82011682018060405250810190610a749190611fe8565b8114610aac576040517f35100de800000000000000000000000000000000000000000000000000000000815260040160405180910390fd5b60075f3373ffffffffffffffffffffffffffffffffffffffff1673ffffffffffffffffffffffffffffffffffffffff1681526020019081526020015f205f9054906101000a900460ff1615610b2d576040517f646cf55800000000000000000000000000000000000000000000000000000000815260040160405180910390fd5b600160075f3373ffffffffffffffffffffffffffffffffffffffff1673ffffffffffffffffffffffffffffffffffffffff1681526020019081526020015f205f6101000a81548160ff0219169083151502179055505f3373ffffffffffffffffffffffffffffffffffffffff1684604051610ba790611f11565b5f6040518083038185875af1925050503d805f8114610be1576040519150601f19603f3d011682016040523d82523d5f602084013e610be6565b606091505b5050905080610c21576040517f6e020c0500000000000000000000000000000000000000000000000000000000815260040160405180910390fd5b8360085f828254610c329190611eb1565b925050819055503373ffffffffffffffffffffffffffffffffffffffff167f47cee97cb7acd717b3c0aa1435d004cd5b3c8c57d70dbceb4e4458bbd60e39d485604051610c7f91906119a2565b60405180910390a2505050505050565b600a5481565b60035f3373ffffffffffffffffffffffffffffffffffffffff1673ffffffffffffffffffffffffffffffffffffffff1681526020019081526020015f205f9054906101000a900460ff16610d15576040517f30cd747100000000000000000000000000000000000000000000000000000000815260040160405180910390fd5b5f600b5f6101000a81548160ff021916908315150217905550565b60045481565b610e1081565b600b5f9054906101000a900460ff1681565b60035f3373ffffffffffffffffffffffffffffffffffffffff1673ffffffffffffffffffffffffffffffffffffffff1681526020019081526020015f205f9054906101000a900460ff16610dce576040517f30cd747100000000000000000000000000000000000000000000000000000000815260040160405180910390fd5b6001600b5f6101000a81548160ff021916908315150217905550565b6005602052815f5260405f20602052805f5260405f205f915091509054906101000a900460ff1681565b6009602052805f5260405f205f91509050805f015f9054906101000a900473ffffffffffffffffffffffffffffffffffffffff1690806001015490806002018054610e5e90612040565b80601f0160208091040260200160405190810160405280929190818152602001828054610e8a90612040565b8015610ed55780601f10610eac57610100808354040283529160200191610ed5565b820191905f5260205f20905b815481529060010190602001808311610eb857829003601f168201915b505050505090806003015f9054906101000a900460ff16908060040154908060050154908060060154905087565b60085481565b600b5f9054906101000a900460ff1615610f4f576040517f6c0739b600000000000000000000000000000000000000000000000000000000815260040160405180910390fd5b60035f3373ffffffffffffffffffffffffffffffffffffffff1673ffffffffffffffffffffffffffffffffffffffff1681526020019081526020015f205f9054906101000a900460ff16610fcf576040517f30cd747100000000000000000000000000000000000000000000000000000000815260040160405180910390fd5b5f60095f8381526020019081526020015f209050806003015f9054906101000a900460ff161561102b576040517ff8e62b1300000000000000000000000000000000000000000000000000000000815260040160405180910390fd5b60055f8381526020019081526020015f205f3373ffffffffffffffffffffffffffffffffffffffff1673ffffffffffffffffffffffffffffffffffffffff1681526020019081526020015f205f9054906101000a900460ff16156110bb576040517f2ec5896300000000000000000000000000000000000000000000000000000000815260040160405180910390fd5b600160055f8481526020019081526020015f205f3373ffffffffffffffffffffffffffffffffffffffff1673ffffffffffffffffffffffffffffffffffffffff1681526020019081526020015f205f6101000a81548160ff021916908315150217905550806004015f81548092919061113390612070565b919050555060045481600401540361115c57610e10426111539190611960565b81600601819055505b3373ffffffffffffffffffffffffffffffffffffffff16827f1f7db319f45151674bbce08ad4e1093bca1941bc7ef2f91ccafd6519406f010160405160405180910390a35050565b5f5f9054906101000a900473ffffffffffffffffffffffffffffffffffffffff1681565b600b5f9054906101000a900460ff161561120e576040517f6c0739b600000000000000000000000000000000000000000000000000000000815260040160405180910390fd5b60035f3373ffffffffffffffffffffffffffffffffffffffff1673ffffffffffffffffffffffffffffffffffffffff1681526020019081526020015f205f9054906101000a900460ff1661128e576040517f30cd747100000000000000000000000000000000000000000000000000000000815260040160405180910390fd5b5f600a5f8154809291906112a190612070565b9190505590506040518060e001604052808673ffffffffffffffffffffffffffffffffffffffff16815260200185815260200184848080601f0160208091040260200160405190810160405280939291908181526020018383808284375f81840152601f19601f8201169050808301925050505050505081526020015f15158152602001600181526020014281526020015f81525060095f8381526020019081526020015f205f820151815f015f6101000a81548173ffffffffffffffffffffffffffffffffffffffff021916908373ffffffffffffffffffffffffffffffffffffffff1602179055506020820151816001015560408201518160020190816113aa919061228c565b506060820151816003015f6101000a81548160ff0219169083151502179055506080820151816004015560a0820151816005015560c08201518160060155905050600160055f8381526020019081526020015f205f3373ffffffffffffffffffffffffffffffffffffffff1673ffffffffffffffffffffffffffffffffffffffff1681526020019081526020015f205f6101000a81548160ff021916908315150217905550807fc0ba8fe4b176c1714197d43b9cc6bcf797a4a7461c5fe8d0ef6e184ae7601e5160405160405180910390a25050505050565b6007602052805f5260405f205f915054906101000a900460ff1681565b60015f9054906101000a900473ffffffffffffffffffffffffffffffffffffffff1681565b3460065f3373ffffffffffffffffffffffffffffffffffffffff1673ffffffffffffffffffffffffffffffffffffffff1681526020019081526020015f205f8282546115119190611960565b925050819055503460085f8282546115299190611960565b925050819055503373ffffffffffffffffffffffffffffffffffffffff167fe1fffcc4923d04b559f4d29a8bfc6cda04eb5b0d3c460751c2402c5c5cc9109c3460405161157691906119a2565b60405180910390a2565b60035f3373ffffffffffffffffffffffffffffffffffffffff1673ffffffffffffffffffffffffffffffffffffffff1681526020019081526020015f205f9054906101000a900460ff16611600576040517feea91ff800000000000000000000000000000000000000000000000000000000815260040160405180910390fd5b5f3373ffffffffffffffffffffffffffffffffffffffff164760405161162590611f11565b5f6040518083038185875af1925050503d805f811461165f576040519150601f19603f3d011682016040523d82523d5f602084013e611664565b606091505b505090508061169f576040517f6e020c0500000000000000000000000000000000000000000000000000000000815260040160405180910390fd5b5f60088190555050565b5f60095f8381526020019081526020015f209050600454816004015410156116fd576040517f04229b4900000000000000000000000000000000000000000000000000000000815260040160405180910390fd5b806003015f9054906101000a900460ff1615611745576040517ff8e62b1300000000000000000000000000000000000000000000000000000000815260040160405180910390fd5b8060060154421015611783576040517fac5553da00000000000000000000000000000000000000000000000000000000815260040160405180910390fd5b6001816003015f6101000a81548160ff0219169083151502179055505f815f015f9054906101000a900473ffffffffffffffffffffffffffffffffffffffff1673ffffffffffffffffffffffffffffffffffffffff168260010154836002016040516117ef91906123db565b5f6040518083038185875af1925050503d805f8114611829576040519150601f19603f3d011682016040523d82523d5f602084013e61182e565b606091505b5050905080611869576040517fbf961a2800000000000000000000000000000000000000000000000000000000815260040160405180910390fd5b827f33e13ecb54c3076d8e8bb8c2881800a4d972b792045ffae98fdf46df365fed7560405160405180910390a2505050565b5f5f8290505f5f90505b84518110156118e1576118d2828683815181106118c5576118c46123f1565b5b60200260200101516118ec565b915080806001019150506118a5565b508091505092915050565b5f818310611903576118fe8284611916565b61190e565b61190d8383611916565b5b905092915050565b5f825f528160205260405f20905092915050565b5f819050919050565b7f4e487b71000000000000000000000000000000000000000000000000000000005f52601160045260245ffd5b5f61196a8261192a565b91506119758361192a565b925082820190508082111561198d5761198c611933565b5b92915050565b61199c8161192a565b82525050565b5f6020820190506119b55f830184611993565b92915050565b5f5ffd5b5f5ffd5b6119cc8161192a565b81146119d6575f5ffd5b50565b5f813590506119e7816119c3565b92915050565b5f60208284031215611a0257611a016119bb565b5b5f611a0f848285016119d9565b91505092915050565b5f73ffffffffffffffffffffffffffffffffffffffff82169050919050565b5f611a4182611a18565b9050919050565b611a5181611a37565b82525050565b5f602082019050611a6a5f830184611a48565b92915050565b611a7981611a37565b8114611a83575f5ffd5b50565b5f81359050611a9481611a70565b92915050565b5f60208284031215611aaf57611aae6119bb565b5b5f611abc84828501611a86565b91505092915050565b5f8115159050919050565b611ad981611ac5565b82525050565b5f602082019050611af25f830184611ad0565b92915050565b5f5ffd5b5f5ffd5b5f5ffd5b5f5f83601f840112611b1957611b18611af8565b5b8235905067ffffffffffffffff811115611b3657611b35611afc565b5b602083019150836020820283011115611b5257611b51611b00565b5b9250929050565b5f5f5f60408486031215611b7057611b6f6119bb565b5b5f84013567ffffffffffffffff811115611b8d57611b8c6119bf565b5b611b9986828701611b04565b93509350506020611bac868287016119d9565b9150509250925092565b5f5f60408385031215611bcc57611bcb6119bb565b5b5f611bd9858286016119d9565b9250506020611bea85828601611a86565b9150509250929050565b5f81519050919050565b5f82825260208201905092915050565b8281835e5f83830152505050565b5f601f19601f8301169050919050565b5f611c3682611bf4565b611c408185611bfe565b9350611c50818560208601611c0e565b611c5981611c1c565b840191505092915050565b5f60e082019050611c775f83018a611a48565b611c846020830189611993565b8181036040830152611c968188611c2c565b9050611ca56060830187611ad0565b611cb26080830186611993565b611cbf60a0830185611993565b611ccc60c0830184611993565b98975050505050505050565b5f819050919050565b5f611cfb611cf6611cf184611a18565b611cd8565b611a18565b9050919050565b5f611d0c82611ce1565b9050919050565b5f611d1d82611d02565b9050919050565b611d2d81611d13565b82525050565b5f602082019050611d465f830184611d24565b92915050565b5f5f83601f840112611d6157611d60611af8565b5b8235905067ffffffffffffffff811115611d7e57611d7d611afc565b5b602083019150836001820283011115611d9a57611d99611b00565b5b9250929050565b5f5f5f5f60608587031215611db957611db86119bb565b5b5f611dc687828801611a86565b9450506020611dd7878288016119d9565b935050604085013567ffffffffffffffff811115611df857611df76119bf565b5b611e0487828801611d4c565b925092505092959194509250565b5f611e1c82611ce1565b9050919050565b5f611e2d82611e12565b9050919050565b611e3d81611e23565b82525050565b5f602082019050611e565f830184611e34565b92915050565b611e6581611ac5565b8114611e6f575f5ffd5b50565b5f81519050611e8081611e5c565b92915050565b5f60208284031215611e9b57611e9a6119bb565b5b5f611ea884828501611e72565b91505092915050565b5f611ebb8261192a565b9150611ec68361192a565b9250828203905081811115611ede57611edd611933565b5b92915050565b5f81905092915050565b50565b5f611efc5f83611ee4565b9150611f0782611eee565b5f82019050919050565b5f611f1b82611ef1565b9150819050919050565b5f8160601b9050919050565b5f611f3b82611f25565b9050919050565b5f611f4c82611f31565b9050919050565b611f64611f5f82611a37565b611f42565b82525050565b5f819050919050565b611f84611f7f8261192a565b611f6a565b82525050565b5f611f958285611f53565b601482019150611fa58284611f73565b6020820191508190509392505050565b5f819050919050565b611fc781611fb5565b8114611fd1575f5ffd5b50565b5f81519050611fe281611fbe565b92915050565b5f60208284031215611ffd57611ffc6119bb565b5b5f61200a84828501611fd4565b91505092915050565b7f4e487b71000000000000000000000000000000000000000000000000000000005f52602260045260245ffd5b5f600282049050600182168061205757607f821691505b60208210810361206a57612069612013565b5b50919050565b5f61207a8261192a565b91507fffffffffffffffffffffffffffffffffffffffffffffffffffffffffffffffff82036120ac576120ab611933565b5b600182019050919050565b7f4e487b71000000000000000000000000000000000000000000000000000000005f52604160045260245ffd5b5f819050815f5260205f209050919050565b5f6020601f8301049050919050565b5f82821b905092915050565b5f600883026121407fffffffffffffffffffffffffffffffffffffffffffffffffffffffffffffffff82612105565b61214a8683612105565b95508019841693508086168417925050509392505050565b5f61217c6121776121728461192a565b611cd8565b61192a565b9050919050565b5f819050919050565b61219583612162565b6121a96121a182612183565b848454612111565b825550505050565b5f5f905090565b6121c06121b1565b6121cb81848461218c565b505050565b5f5b828110156121f1576121e65f8284016121b8565b6001810190506121d2565b505050565b601f821115612244578282111561224357612210816120e4565b612219836120f6565b612222856120f6565b602086101561222f575f90505b80830161223e828403826121d0565b505050505b5b505050565b5f82821c905092915050565b5f6122645f1984600802612249565b1980831691505092915050565b5f61227c8383612255565b9150826002028217905092915050565b61229582611bf4565b67ffffffffffffffff8111156122ae576122ad6120b7565b5b6122b88254612040565b6122c38282856121f6565b5f60209050601f8311600181146122f4575f84156122e2578287015190505b6122ec8582612271565b865550612353565b601f198416612302866120e4565b5f5b8281101561232957848901518255600182019150602085019450602081019050612304565b868310156123465784890151612342601f891682612255565b8355505b6001600288020188555050505b505050505050565b5f815461236781612040565b6123718186611ee4565b9450600182165f811461238b57600181146123a0576123d2565b60ff19831686528115158202860193506123d2565b6123a9856120e4565b5f5b838110156123ca578154818901526001820191506020810190506123ab565b838801955050505b50505092915050565b5f6123e6828461235b565b915081905092915050565b7f4e487b71000000000000000000000000000000000000000000000000000000005f52603260045260245ffdfea26469706673582212202ef5735788f197890374b03c9f5be5156597195a171e71be310794168b3030bb64736f6c63430008210033","linkReferences":{}},"methodIdentifiers":{"TIMELOCK_DURATION()":"4623c81e","balances(address)":"27e235e3","claim(bytes32[],uint256)":"3b439351","claimed(address)":"c884ef83","confirmTransaction(uint256)":"c01a8c84","confirmed(uint256,address)":"8790c1de","deposit()":"d0e30db0","emergencyWithdrawAll()":"dd191719","executeTransaction(uint256)":"ee22610b","isOwner(address)":"2f54bf6e","merkle()":"c584b9b5","owners(uint256)":"025e7c27","pause()":"8456cb59","paused()":"5c975abb","submitTransaction(address,uint256,bytes)":"c6427474","threshold()":"42cde4e8","totalVaultValue()":"afbc74b9","transaction()":"c99de57e","transactions(uint256)":"9ace38c2","txCount()":"3c540687","unpause()":"3f4ba83a","withdraw(uint256)":"2e1a7d4d"},"id":9}