{"abi":[{"type":"constructor","inputs":[{"name":"transactionAddr","type":"address","internalType":"address"},{"name":"merkleAddr","type":"address","internalType":"address"},{"name":"_owners","type":"address[]","internalType":"address[]"},{"name":"_threshold","type":"uint256","internalType":"uint256"}],"stateMutability":"nonpayable"},{"type":"receive","stateMutability":"payable"},{"type":"function","name":"TIMELOCK_DURATION","inputs":[],"outputs":[{"name":"","type":"uint256","internalType":"uint256"}],"stateMutability":"view"},{"type":"function","name":"balances","inputs":[{"name":"","type":"address","internalType":"address"}],"outputs":[{"name":"","type":"uint256","internalType":"uint256"}],"stateMutability":"view"},{"type":"function","name":"claim","inputs":[{"name":"proof","type":"bytes32[]","internalType":"bytes32[]"},{"name":"amount","type":"uint256","internalType":"uint256"}],"outputs":[],"stateMutability":"nonpayable"},{"type":"function","name":"claimed","inputs":[{"name":"","type":"address","internalType":"address"}],"outputs":[{"name":"","type":"bool","internalType":"bool"}],"stateMutability":"view"},{"type":"function","name":"confirmTransaction","inputs":[{"name":"txId","type":"uint256","internalType":"uint256"}],"outputs":[],"stateMutability":"nonpayable"},{"type":"function","name":"confirmed","inputs":[{"name":"","type":"uint256","internalType":"uint256"},{"name":"","type":"address","internalType":"address"}],"outputs":[{"name":"","type":"bool","internalType":"bool"}],"stateMutability":"view"},{"type":"function","name":"deposit","inputs":[],"outputs":[],"stateMutability":"payable"},{"type":"function","name":"emergencyWithdrawAll","inputs":[],"outputs":[],"stateMutability":"nonpayable"},{"type":"function","name":"executeTransaction","inputs":[{"name":"txId","type":"uint256","internalType":"uint256"}],"outputs":[],"stateMutability":"nonpayable"},{"type":"function","name":"isOwner","inputs":[{"name":"","type":"address","internalType":"address"}],"outputs":[{"name":"","type":"bool","internalType":"bool"}],"stateMutability":"view"},{"type":"function","name":"merkle","inputs":[],"outputs":[{"name":"","type":"address","internalType":"contract Merkle"}],"stateMutability":"view"},{"type":"function","name":"owners","inputs":[{"name":"","type":"uint256","internalType":"uint256"}],"outputs":[{"name":"","type":"address","internalType":"address"}],"stateMutability":"view"},{"type":"function","name":"pause","inputs":[],"outputs":[],"stateMutability":"nonpayable"},{"type":"function","name":"paused","inputs":[],"outputs":[{"name":"","type":"bool","internalType":"bool"}],"stateMutability":"view"},{"type":"function","name":"setTransactionsAddr","inputs":[{"name":"_address","type":"address","internalType":"address"}],"outputs":[],"stateMutability":"nonpayable"},{"type":"function","name":"submitTransaction","inputs":[{"name":"to","type":"address","internalType":"address"},{"name":"value","type":"uint256","internalType":"uint256"},{"name":"data","type":"bytes","internalType":"bytes"}],"outputs":[],"stateMutability":"nonpayable"},{"type":"function","name":"threshold","inputs":[],"outputs":[{"name":"","type":"uint256","internalType":"uint256"}],"stateMutability":"view"},{"type":"function","name":"totalVaultValue","inputs":[],"outputs":[{"name":"","type":"uint256","internalType":"uint256"}],"stateMutability":"view"},{"type":"function","name":"transaction","inputs":[],"outputs":[{"name":"","type":"address","internalType":"contract Transactions"}],"stateMutability":"view"},{"type":"function","name":"transactions","inputs":[{"name":"","type":"uint256","internalType":"uint256"}],"outputs":[{"name":"to","type":"address","internalType":"address"},{"name":"value","type":"uint256","internalType":"uint256"},{"name":"data","type":"bytes","internalType":"bytes"},{"name":"executed","type":"bool","internalType":"bool"},{"name":"confirmations","type":"uint256","internalType":"uint256"},{"name":"submissionTime","type":"uint256","internalType":"uint256"},{"name":"executionTime","type":"uint256","internalType":"uint256"}],"stateMutability":"view"},{"type":"function","name":"txCount","inputs":[],"outputs":[{"name":"","type":"uint256","internalType":"uint256"}],"stateMutability":"view"},{"type":"function","name":"unpause","inputs":[],"outputs":[],"stateMutability":"nonpayable"},{"type":"function","name":"withdraw","inputs":[{"name":"amount","type":"uint256","internalType":"uint256"}],"outputs":[],"stateMutability":"nonpayable"},{"type":"event","name":"Claim","inputs":[{"name":"claimant","type":"address","indexed":true,"internalType":"address"},{"name":"amount","type":"uint256","indexed":false,"internalType":"uint256"}],"anonymous":false},{"type":"event","name":"Confirmation","inputs":[{"name":"txId","type":"uint256","indexed":true,"internalType":"uint256"},{"name":"owner","type":"address","indexed":true,"internalType":"address"}],"anonymous":false},{"type":"event","name":"Deposit","inputs":[{"name":"depositor","type":"address","indexed":true,"internalType":"address"},{"name":"amount","type":"uint256","indexed":false,"internalType":"uint256"}],"anonymous":false},{"type":"event","name":"Execution","inputs":[{"name":"txId","type":"uint256","indexed":true,"internalType":"uint256"}],"anonymous":false},{"type":"event","name":"Submission","inputs":[{"name":"txId","type":"uint256","indexed":true,"internalType":"uint256"}],"anonymous":false},{"type":"event","name":"Withdrawal","inputs":[{"name":"withdrawer","type":"address","indexed":true,"internalType":"address"},{"name":"amount","type":"uint256","indexed":false,"internalType":"uint256"}],"anonymous":false},{"type":"error","name":"AlreadyClaimed","inputs":[]},{"type":"error","name":"InsufficientBalance","inputs":[]},{"type":"error","name":"InvalidLeaf","inputs":[]},{"type":"error","name":"NeedMoreConfirmations","inputs":[]},{"type":"error","name":"NoOwners","inputs":[]},{"type":"error","name":"NotAnOwner","inputs":[]},{"type":"error","name":"NotOwner","inputs":[]},{"type":"error","name":"Paused","inputs":[]},{"type":"error","name":"TransactFailed","inputs":[]},{"type":"error","name":"TransactionConfirmedByCaller","inputs":[]},{"type":"error","name":"TransactionFailed","inputs":[]},{"type":"error","name":"TransactionIsExecuted","inputs":[]},{"type":"error","name":"VaultIsPaused","inputs":[]},{"type":"error","name":"WaitForExecutionTime","inputs":[]},{"type":"error","name":"ZeroAddressInOwnersArray","inputs":[]}],"bytecode":{"object":"0x608060405234801561000f575f5ffd5b506040516129d03803806129d08339818101604052810190610031919061044c565b838383838360015f6101000a81548173ffffffffffffffffffffffffffffffffffffffff021916908373ffffffffffffffffffffffffffffffffffffffff160217905550825f5f6101000a81548173ffffffffffffffffffffffffffffffffffffffff021916908373ffffffffffffffffffffffffffffffffffffffff1602179055505f8251036100ee576040517f60d5ca6300000000000000000000000000000000000000000000000000000000815260040160405180910390fd5b806004819055505f5f90505b8251811015610249575f838281518110610117576101166104cc565b5b602002602001015190505f73ffffffffffffffffffffffffffffffffffffffff168173ffffffffffffffffffffffffffffffffffffffff1603610186576040517fc4820bb500000000000000000000000000000000000000000000000000000000815260040160405180910390fd5b600160035f8373ffffffffffffffffffffffffffffffffffffffff1673ffffffffffffffffffffffffffffffffffffffff1681526020019081526020015f205f6101000a81548160ff021916908315150217905550600281908060018154018082558091505060019003905f5260205f20015f9091909190916101000a81548173ffffffffffffffffffffffffffffffffffffffff021916908373ffffffffffffffffffffffffffffffffffffffff1602179055505080806001019150506100fa565b503460088190555050505050505050506104f9565b5f604051905090565b5f5ffd5b5f5ffd5b5f73ffffffffffffffffffffffffffffffffffffffff82169050919050565b5f6102988261026f565b9050919050565b6102a88161028e565b81146102b2575f5ffd5b50565b5f815190506102c38161029f565b92915050565b5f5ffd5b5f601f19601f8301169050919050565b7f4e487b71000000000000000000000000000000000000000000000000000000005f52604160045260245ffd5b610313826102cd565b810181811067ffffffffffffffff82111715610332576103316102dd565b5b80604052505050565b5f61034461025e565b9050610350828261030a565b919050565b5f67ffffffffffffffff82111561036f5761036e6102dd565b5b602082029050602081019050919050565b5f5ffd5b5f61039661039184610355565b61033b565b905080838252602082019050602084028301858111156103b9576103b8610380565b5b835b818110156103e257806103ce88826102b5565b8452602084019350506020810190506103bb565b5050509392505050565b5f82601f830112610400576103ff6102c9565b5b8151610410848260208601610384565b91505092915050565b5f819050919050565b61042b81610419565b8114610435575f5ffd5b50565b5f8151905061044681610422565b92915050565b5f5f5f5f6080858703121561046457610463610267565b5b5f610471878288016102b5565b9450506020610482878288016102b5565b935050604085015167ffffffffffffffff8111156104a3576104a261026b565b5b6104af878288016103ec565b92505060606104c087828801610438565b91505092959194509250565b7f4e487b71000000000000000000000000000000000000000000000000000000005f52603260045260245ffd5b6124ca806105065f395ff3fe608060405260043610610143575f3560e01c80638790c1de116100b5578063c884ef831161006e578063c884ef8314610501578063c99de57e1461053d578063d0e30db014610567578063dd19171914610571578063ee22610b14610587578063f6548abb146105af57610203565b80638790c1de146103df5780639ace38c21461041b578063afbc74b91461045d578063c01a8c8414610487578063c584b9b5146104af578063c6427474146104d957610203565b80633c540687116101075780633c5406871461030b5780633f4ba83a1461033557806342cde4e81461034b5780634623c81e146103755780635c975abb1461039f5780638456cb59146103c957610203565b8063025e7c271461020757806327e235e3146102435780632e1a7d4d1461027f5780632f54bf6e146102a75780633b439351146102e357610203565b36610203573460065f3373ffffffffffffffffffffffffffffffffffffffff1673ffffffffffffffffffffffffffffffffffffffff1681526020019081526020015f205f82825461019491906119d6565b925050819055503460085f8282546101ac91906119d6565b925050819055503373ffffffffffffffffffffffffffffffffffffffff167fe1fffcc4923d04b559f4d29a8bfc6cda04eb5b0d3c460751c2402c5c5cc9109c346040516101f99190611a18565b60405180910390a2005b5f5ffd5b348015610212575f5ffd5b5061022d60048036038101906102289190611a63565b6105d7565b60405161023a9190611acd565b60405180910390f35b34801561024e575f5ffd5b5061026960048036038101906102649190611b10565b610612565b6040516102769190611a18565b60405180910390f35b34801561028a575f5ffd5b506102a560048036038101906102a09190611a63565b610627565b005b3480156102b2575f5ffd5b506102cd60048036038101906102c89190611b10565b6108bf565b6040516102da9190611b55565b60405180910390f35b3480156102ee575f5ffd5b5061030960048036038101906103049190611bcf565b6108dc565b005b348015610316575f5ffd5b5061031f610cc2565b60405161032c9190611a18565b60405180910390f35b348015610340575f5ffd5b50610349610cc8565b005b348015610356575f5ffd5b5061035f610d63565b60405161036c9190611a18565b60405180910390f35b348015610380575f5ffd5b50610389610d69565b6040516103969190611a18565b60405180910390f35b3480156103aa575f5ffd5b506103b3610d6f565b6040516103c09190611b55565b60405180910390f35b3480156103d4575f5ffd5b506103dd610d81565b005b3480156103ea575f5ffd5b5061040560048036038101906104009190611c2c565b610e1d565b6040516104129190611b55565b60405180910390f35b348015610426575f5ffd5b50610441600480360381019061043c9190611a63565b610e47565b6040516104549796959493929190611cda565b60405180910390f35b348015610468575f5ffd5b50610471610f36565b60405161047e9190611a18565b60405180910390f35b348015610492575f5ffd5b506104ad60048036038101906104a89190611a63565b610f3c565b005b3480156104ba575f5ffd5b506104c36111d7565b6040516104d09190611da9565b60405180910390f35b3480156104e4575f5ffd5b506104ff60048036038101906104fa9190611e17565b6111fb565b005b34801561050c575f5ffd5b5061052760048036038101906105229190611b10565b6114b6565b6040516105349190611b55565b60405180910390f35b348015610548575f5ffd5b506105516114d3565b60405161055e9190611eb9565b60405180910390f35b61056f6114f8565b005b34801561057c575f5ffd5b506105856115b3565b005b348015610592575f5ffd5b506105ad60048036038101906105a89190611a63565b6116dc565b005b3480156105ba575f5ffd5b506105d560048036038101906105d09190611b10565b6118ce565b005b600281815481106105e6575f80fd5b905f5260205f20015f915054906101000a900473ffffffffffffffffffffffffffffffffffffffff1681565b6006602052805f5260405f205f915090505481565b60015f9054906101000a900473ffffffffffffffffffffffffffffffffffffffff1673ffffffffffffffffffffffffffffffffffffffff16635c975abb6040518163ffffffff1660e01b8152600401602060405180830381865afa158015610691573d5f5f3e3d5ffd5b505050506040513d601f19601f820116820180604052508101906106b59190611efc565b156106ec576040517f9e87fac800000000000000000000000000000000000000000000000000000000815260040160405180910390fd5b8060065f3373ffffffffffffffffffffffffffffffffffffffff1673ffffffffffffffffffffffffffffffffffffffff1681526020019081526020015f20541015610763576040517ff4d678b800000000000000000000000000000000000000000000000000000000815260040160405180910390fd5b8060065f3373ffffffffffffffffffffffffffffffffffffffff1673ffffffffffffffffffffffffffffffffffffffff1681526020019081526020015f205f8282546107af9190611f27565b925050819055508060085f8282546107c79190611f27565b925050819055505f3373ffffffffffffffffffffffffffffffffffffffff16826040516107f390611f87565b5f6040518083038185875af1925050503d805f811461082d576040519150601f19603f3d011682016040523d82523d5f602084013e610832565b606091505b505090508061086d576040517f6e020c0500000000000000000000000000000000000000000000000000000000815260040160405180910390fd5b3373ffffffffffffffffffffffffffffffffffffffff167f7fcf532c15f0a6db0bd6d0e038bea71d30d808c7d98cb3bf7268a95bf5081b65836040516108b39190611a18565b60405180910390a25050565b6003602052805f5260405f205f915054906101000a900460ff1681565b60015f9054906101000a900473ffffffffffffffffffffffffffffffffffffffff1673ffffffffffffffffffffffffffffffffffffffff16635c975abb6040518163ffffffff1660e01b8152600401602060405180830381865afa158015610946573d5f5f3e3d5ffd5b505050506040513d601f19601f8201168201806040525081019061096a9190611efc565b156109a1576040517f9e87fac800000000000000000000000000000000000000000000000000000000815260040160405180910390fd5b5f33826040516020016109b5929190612000565b6040516020818303038152906040528051906020012090505f610a188585808060200260200160405190810160405280939291908181526020018383602002808284375f81840152601f19601f8201169050808301925050505050505083611911565b90505f5f9054906101000a900473ffffffffffffffffffffffffffffffffffffffff1673ffffffffffffffffffffffffffffffffffffffff16632eb4a7ab6040518163ffffffff1660e01b8152600401602060405180830381865afa158015610a83573d5f5f3e3d5ffd5b505050506040513d601f19601f82011682018060405250810190610aa7919061205e565b8114610adf576040517f35100de800000000000000000000000000000000000000000000000000000000815260040160405180910390fd5b60075f3373ffffffffffffffffffffffffffffffffffffffff1673ffffffffffffffffffffffffffffffffffffffff1681526020019081526020015f205f9054906101000a900460ff1615610b60576040517f646cf55800000000000000000000000000000000000000000000000000000000815260040160405180910390fd5b600160075f3373ffffffffffffffffffffffffffffffffffffffff1673ffffffffffffffffffffffffffffffffffffffff1681526020019081526020015f205f6101000a81548160ff0219169083151502179055505f3373ffffffffffffffffffffffffffffffffffffffff1684604051610bda90611f87565b5f6040518083038185875af1925050503d805f8114610c14576040519150601f19603f3d011682016040523d82523d5f602084013e610c19565b606091505b5050905080610c54576040517f6e020c0500000000000000000000000000000000000000000000000000000000815260040160405180910390fd5b8360085f828254610c659190611f27565b925050819055503373ffffffffffffffffffffffffffffffffffffffff167f47cee97cb7acd717b3c0aa1435d004cd5b3c8c57d70dbceb4e4458bbd60e39d485604051610cb29190611a18565b60405180910390a2505050505050565b600a5481565b60035f3373ffffffffffffffffffffffffffffffffffffffff1673ffffffffffffffffffffffffffffffffffffffff1681526020019081526020015f205f9054906101000a900460ff16610d48576040517f30cd747100000000000000000000000000000000000000000000000000000000815260040160405180910390fd5b5f600b5f6101000a81548160ff021916908315150217905550565b60045481565b610e1081565b600b5f9054906101000a900460ff1681565b60035f3373ffffffffffffffffffffffffffffffffffffffff1673ffffffffffffffffffffffffffffffffffffffff1681526020019081526020015f205f9054906101000a900460ff16610e01576040517f30cd747100000000000000000000000000000000000000000000000000000000815260040160405180910390fd5b6001600b5f6101000a81548160ff021916908315150217905550565b6005602052815f5260405f20602052805f5260405f205f915091509054906101000a900460ff1681565b6009602052805f5260405f205f91509050805f015f9054906101000a900473ffffffffffffffffffffffffffffffffffffffff1690806001015490806002018054610e91906120b6565b80601f0160208091040260200160405190810160405280929190818152602001828054610ebd906120b6565b8015610f085780601f10610edf57610100808354040283529160200191610f08565b820191905f5260205f20905b815481529060010190602001808311610eeb57829003601f168201915b505050505090806003015f9054906101000a900460ff16908060040154908060050154908060060154905087565b60085481565b600b5f9054906101000a900460ff1615610f82576040517f6c0739b600000000000000000000000000000000000000000000000000000000815260040160405180910390fd5b60035f3373ffffffffffffffffffffffffffffffffffffffff1673ffffffffffffffffffffffffffffffffffffffff1681526020019081526020015f205f9054906101000a900460ff16611002576040517f30cd747100000000000000000000000000000000000000000000000000000000815260040160405180910390fd5b5f60095f8381526020019081526020015f209050806003015f9054906101000a900460ff161561105e576040517ff8e62b1300000000000000000000000000000000000000000000000000000000815260040160405180910390fd5b60055f8381526020019081526020015f205f3373ffffffffffffffffffffffffffffffffffffffff1673ffffffffffffffffffffffffffffffffffffffff1681526020019081526020015f205f9054906101000a900460ff16156110ee576040517f2ec5896300000000000000000000000000000000000000000000000000000000815260040160405180910390fd5b600160055f8481526020019081526020015f205f3373ffffffffffffffffffffffffffffffffffffffff1673ffffffffffffffffffffffffffffffffffffffff1681526020019081526020015f205f6101000a81548160ff021916908315150217905550806004015f815480929190611166906120e6565b919050555060045481600401540361118f57610e104261118691906119d6565b81600601819055505b3373ffffffffffffffffffffffffffffffffffffffff16827f1f7db319f45151674bbce08ad4e1093bca1941bc7ef2f91ccafd6519406f010160405160405180910390a35050565b5f5f9054906101000a900473ffffffffffffffffffffffffffffffffffffffff1681565b600b5f9054906101000a900460ff1615611241576040517f6c0739b600000000000000000000000000000000000000000000000000000000815260040160405180910390fd5b60035f3373ffffffffffffffffffffffffffffffffffffffff1673ffffffffffffffffffffffffffffffffffffffff1681526020019081526020015f205f9054906101000a900460ff166112c1576040517f30cd747100000000000000000000000000000000000000000000000000000000815260040160405180910390fd5b5f600a5f8154809291906112d4906120e6565b9190505590506040518060e001604052808673ffffffffffffffffffffffffffffffffffffffff16815260200185815260200184848080601f0160208091040260200160405190810160405280939291908181526020018383808284375f81840152601f19601f8201169050808301925050505050505081526020015f15158152602001600181526020014281526020015f81525060095f8381526020019081526020015f205f820151815f015f6101000a81548173ffffffffffffffffffffffffffffffffffffffff021916908373ffffffffffffffffffffffffffffffffffffffff1602179055506020820151816001015560408201518160020190816113dd9190612302565b506060820151816003015f6101000a81548160ff0219169083151502179055506080820151816004015560a0820151816005015560c08201518160060155905050600160055f8381526020019081526020015f205f3373ffffffffffffffffffffffffffffffffffffffff1673ffffffffffffffffffffffffffffffffffffffff1681526020019081526020015f205f6101000a81548160ff021916908315150217905550807fc0ba8fe4b176c1714197d43b9cc6bcf797a4a7461c5fe8d0ef6e184ae7601e5160405160405180910390a25050505050565b6007602052805f5260405f205f915054906101000a900460ff1681565b60015f9054906101000a900473ffffffffffffffffffffffffffffffffffffffff1681565b3460065f3373ffffffffffffffffffffffffffffffffffffffff1673ffffffffffffffffffffffffffffffffffffffff1681526020019081526020015f205f82825461154491906119d6565b925050819055503460085f82825461155c91906119d6565b925050819055503373ffffffffffffffffffffffffffffffffffffffff167fe1fffcc4923d04b559f4d29a8bfc6cda04eb5b0d3c460751c2402c5c5cc9109c346040516115a99190611a18565b60405180910390a2565b60035f3373ffffffffffffffffffffffffffffffffffffffff1673ffffffffffffffffffffffffffffffffffffffff1681526020019081526020015f205f9054906101000a900460ff16611633576040517feea91ff800000000000000000000000000000000000000000000000000000000815260040160405180910390fd5b5f3373ffffffffffffffffffffffffffffffffffffffff164760405161165890611f87565b5f6040518083038185875af1925050503d805f8114611692576040519150601f19603f3d011682016040523d82523d5f602084013e611697565b606091505b50509050806116d2576040517f6e020c0500000000000000000000000000000000000000000000000000000000815260040160405180910390fd5b5f60088190555050565b5f60095f8381526020019081526020015f20905060045481600401541015611730576040517f04229b4900000000000000000000000000000000000000000000000000000000815260040160405180910390fd5b806003015f9054906101000a900460ff1615611778576040517ff8e62b1300000000000000000000000000000000000000000000000000000000815260040160405180910390fd5b80600601544210156117b6576040517fac5553da00000000000000000000000000000000000000000000000000000000815260040160405180910390fd5b6001816003015f6101000a81548160ff0219169083151502179055505f815f015f9054906101000a900473ffffffffffffffffffffffffffffffffffffffff1673ffffffffffffffffffffffffffffffffffffffff168260010154836002016040516118229190612451565b5f6040518083038185875af1925050503d805f811461185c576040519150601f19603f3d011682016040523d82523d5f602084013e611861565b606091505b505090508061189c576040517fbf961a2800000000000000000000000000000000000000000000000000000000815260040160405180910390fd5b827f33e13ecb54c3076d8e8bb8c2881800a4d972b792045ffae98fdf46df365fed7560405160405180910390a2505050565b8060015f6101000a81548173ffffffffffffffffffffffffffffffffffffffff021916908373ffffffffffffffffffffffffffffffffffffffff16021790555050565b5f5f8290505f5f90505b8451811015611957576119488286838151811061193b5761193a612467565b5b6020026020010151611962565b9150808060010191505061191b565b508091505092915050565b5f81831061197957611974828461198c565b611984565b611983838361198c565b5b905092915050565b5f825f528160205260405f20905092915050565b5f819050919050565b7f4e487b71000000000000000000000000000000000000000000000000000000005f52601160045260245ffd5b5f6119e0826119a0565b91506119eb836119a0565b9250828201905080821115611a0357611a026119a9565b5b92915050565b611a12816119a0565b82525050565b5f602082019050611a2b5f830184611a09565b92915050565b5f5ffd5b5f5ffd5b611a42816119a0565b8114611a4c575f5ffd5b50565b5f81359050611a5d81611a39565b92915050565b5f60208284031215611a7857611a77611a31565b5b5f611a8584828501611a4f565b91505092915050565b5f73ffffffffffffffffffffffffffffffffffffffff82169050919050565b5f611ab782611a8e565b9050919050565b611ac781611aad565b82525050565b5f602082019050611ae05f830184611abe565b92915050565b611aef81611aad565b8114611af9575f5ffd5b50565b5f81359050611b0a81611ae6565b92915050565b5f60208284031215611b2557611b24611a31565b5b5f611b3284828501611afc565b91505092915050565b5f8115159050919050565b611b4f81611b3b565b82525050565b5f602082019050611b685f830184611b46565b92915050565b5f5ffd5b5f5ffd5b5f5ffd5b5f5f83601f840112611b8f57611b8e611b6e565b5b8235905067ffffffffffffffff811115611bac57611bab611b72565b5b602083019150836020820283011115611bc857611bc7611b76565b5b9250929050565b5f5f5f60408486031215611be657611be5611a31565b5b5f84013567ffffffffffffffff811115611c0357611c02611a35565b5b611c0f86828701611b7a565b93509350506020611c2286828701611a4f565b9150509250925092565b5f5f60408385031215611c4257611c41611a31565b5b5f611c4f85828601611a4f565b9250506020611c6085828601611afc565b9150509250929050565b5f81519050919050565b5f82825260208201905092915050565b8281835e5f83830152505050565b5f601f19601f8301169050919050565b5f611cac82611c6a565b611cb68185611c74565b9350611cc6818560208601611c84565b611ccf81611c92565b840191505092915050565b5f60e082019050611ced5f83018a611abe565b611cfa6020830189611a09565b8181036040830152611d0c8188611ca2565b9050611d1b6060830187611b46565b611d286080830186611a09565b611d3560a0830185611a09565b611d4260c0830184611a09565b98975050505050505050565b5f819050919050565b5f611d71611d6c611d6784611a8e565b611d4e565b611a8e565b9050919050565b5f611d8282611d57565b9050919050565b5f611d9382611d78565b9050919050565b611da381611d89565b82525050565b5f602082019050611dbc5f830184611d9a565b92915050565b5f5f83601f840112611dd757611dd6611b6e565b5b8235905067ffffffffffffffff811115611df457611df3611b72565b5b602083019150836001820283011115611e1057611e0f611b76565b5b9250929050565b5f5f5f5f60608587031215611e2f57611e2e611a31565b5b5f611e3c87828801611afc565b9450506020611e4d87828801611a4f565b935050604085013567ffffffffffffffff811115611e6e57611e6d611a35565b5b611e7a87828801611dc2565b925092505092959194509250565b5f611e9282611d57565b9050919050565b5f611ea382611e88565b9050919050565b611eb381611e99565b82525050565b5f602082019050611ecc5f830184611eaa565b92915050565b611edb81611b3b565b8114611ee5575f5ffd5b50565b5f81519050611ef681611ed2565b92915050565b5f60208284031215611f1157611f10611a31565b5b5f611f1e84828501611ee8565b91505092915050565b5f611f31826119a0565b9150611f3c836119a0565b9250828203905081811115611f5457611f536119a9565b5b92915050565b5f81905092915050565b50565b5f611f725f83611f5a565b9150611f7d82611f64565b5f82019050919050565b5f611f9182611f67565b9150819050919050565b5f8160601b9050919050565b5f611fb182611f9b565b9050919050565b5f611fc282611fa7565b9050919050565b611fda611fd582611aad565b611fb8565b82525050565b5f819050919050565b611ffa611ff5826119a0565b611fe0565b82525050565b5f61200b8285611fc9565b60148201915061201b8284611fe9565b6020820191508190509392505050565b5f819050919050565b61203d8161202b565b8114612047575f5ffd5b50565b5f8151905061205881612034565b92915050565b5f6020828403121561207357612072611a31565b5b5f6120808482850161204a565b91505092915050565b7f4e487b71000000000000000000000000000000000000000000000000000000005f52602260045260245ffd5b5f60028204905060018216806120cd57607f821691505b6020821081036120e0576120df612089565b5b50919050565b5f6120f0826119a0565b91507fffffffffffffffffffffffffffffffffffffffffffffffffffffffffffffffff8203612122576121216119a9565b5b600182019050919050565b7f4e487b71000000000000000000000000000000000000000000000000000000005f52604160045260245ffd5b5f819050815f5260205f209050919050565b5f6020601f8301049050919050565b5f82821b905092915050565b5f600883026121b67fffffffffffffffffffffffffffffffffffffffffffffffffffffffffffffffff8261217b565b6121c0868361217b565b95508019841693508086168417925050509392505050565b5f6121f26121ed6121e8846119a0565b611d4e565b6119a0565b9050919050565b5f819050919050565b61220b836121d8565b61221f612217826121f9565b848454612187565b825550505050565b5f5f905090565b612236612227565b612241818484612202565b505050565b5f5b828110156122675761225c5f82840161222e565b600181019050612248565b505050565b601f8211156122ba57828211156122b9576122868161215a565b61228f8361216c565b6122988561216c565b60208610156122a5575f90505b8083016122b482840382612246565b505050505b5b505050565b5f82821c905092915050565b5f6122da5f19846008026122bf565b1980831691505092915050565b5f6122f283836122cb565b9150826002028217905092915050565b61230b82611c6a565b67ffffffffffffffff8111156123245761232361212d565b5b61232e82546120b6565b61233982828561226c565b5f60209050601f83116001811461236a575f8415612358578287015190505b61236285826122e7565b8655506123c9565b601f1984166123788661215a565b5f5b8281101561239f5784890151825560018201915060208501945060208101905061237a565b868310156123bc57848901516123b8601f8916826122cb565b8355505b6001600288020188555050505b505050505050565b5f81546123dd816120b6565b6123e78186611f5a565b9450600182165f8114612401576001811461241657612448565b60ff1983168652811515820286019350612448565b61241f8561215a565b5f5b8381101561244057815481890152600182019150602081019050612421565b838801955050505b50505092915050565b5f61245c82846123d1565b915081905092915050565b7f4e487b71000000000000000000000000000000000000000000000000000000005f52603260045260245ffdfea2646970667358221220e8ce59d2680818d0c33cae8519cd11ab0a6d62746ecabf9096a46ff60b4a994564736f6c63430008210033","linkReferences":{}},"methodIdentifiers":{"TIMELOCK_DURATION()":"4623c81e","balances(address)":"27e235e3","claim(bytes32[],uint256)":"3b439351","claimed(address)":"c884ef83","confirmTransaction(uint256)":"c01a8c84","confirmed(uint256,address)":"8790c1de","deposit()":"d0e30db0","emergencyWithdrawAll()":"dd191719","executeTransaction(uint256)":"ee22610b","isOwner(address)":"2f54bf6e","merkle()":"c584b9b5","owners(uint256)":"025e7c27","pause()":"8456cb59","paused()":"5c975abb","setTransactionsAddr(address)":"f6548abb","submitTransaction(address,uint256,bytes)":"c6427474","threshold()":"42cde4e8","totalVaultValue()":"afbc74b9","transaction()":"c99de57e","transactions(uint256)":"9ace38c2","txCount()":"3c540687","unpause()":"3f4ba83a","withdraw(uint256)":"2e1a7d4d"},"id":28}